:1000000002110890014CE0FFE4F0220214D812180B
:0A0010005D53B2BF43B14002187FF8
:10001B0002176CBB010689828A83E0225002E72219
:10002B00BBFE02E32289828A83E49322BB010CE5A7
:10003B008229F582E5833AF583E0225006E9258291
:10004B00F8E622BBFE06E92582F8E222E58229F5D5
:10005B0082E5833AF583E49322BC000BBE0029EFC3
:10006B008DF084FFADF022E4CCF875F008EF2FFF94
:10007B00EE33FEEC33FCEE9DEC984005FCEE9DFE62
:10008B000FD5F0E9E4CEFD22EDF8F5F0EE8420D2A9
:10009B001CFEADF075F008EF2FFFED33FD40079818
:1000AB005006D5F0F222C398FD0FD5F0EA22C5F029
:1000BB00F8A3E028F0C5F0F8E582158270021583ED
:1000CB00E038F022E88FF0A4CC8BF0A42CFCE98E66
:1000DB00F0A42CFC8AF0EDA42CFCEA8EF0A4CDA8A5
:1000EB00F08BF0A42DCC3825F0FDE98FF0A42CCDAE
:1000FB0035F0FCEB8EF0A4FEA9F0EB8FF0A4CFC58E
:10010B00F02ECD39FEE43CFCEAA42DCE35F0FDE417
:10011B003CFC2275F008758200EF2FFFEE33FECD0D
:10012B0033CDCC33CCC58233C5829BED9AEC99E5AC
:10013B008298400CF582EE9BFEED9AFDEC99FC0F3C
:10014B00D5F0D6E4CEFBE4CDFAE4CCF9A88222B804
:10015B0000C1B90059BA002DEC8BF084CFCECDFC89
:10016B00E5F0CBF97818EF2FFFEE33FEED33FDEC16
:10017B0033FCEB33FB10D703994004EB99FB0FD8FF
:10018B00E5E4F9FA227818EF2FFFEE33FEED33FD9D
:10019B00EC33FCC933C910D7059BE99A4007EC9B9C
:1001AB00FCE99AF90FD8E0E4C9FAE4CCFB2275F02C
:1001BB0010EF2FFFEE33FEED33FDCC33CCC833C83D
:1001CB0010D7079BEC9AE899400AED9BFDEC9AFC43
:1001DB00E899F80FD5F0DAE4CDFBE4CCFAE4C8F9F2
:1001EB0022EB9FF5F0EA9E42F0E99D42F0EC648031
:1001FB00C864809845F022EB9FF5F0EA9E42F0E947
:10020B009D42F0E89C45F022E6FC08E6FD08E6FE80
:10021B0008E6FF22E0FCA3E0FDA3E0FEA3E0FF2243
:10022B00E0F8A3E0F9A3E0FAA3E0FB22ECF608ED7B
:10023B00F608EEF608EFF622ECF0A3EDF0A3EEF0E5
:10024B00A3EFF022A8828583F0D083D082120266BE
:10025B00120266120266120266E473E493A3C5836C
:10026B00C5F0C583C8C582C8F0A3C583C5F0C583D7
:10027B00C8C582C822E6FB08E6FA08E6F922EBF6C7
:10028B0008EAF608E9F622E0FBA3E0FAA3E0F9227C
:10029B00EBF0A3EAF0A3E9F022D083D082F8E49349
:1002AB007012740193700DA3A393F8740193F582EC
:1002BB008883E4737402936860EFA3A3A380DF8A3F
:1002CB00838982E473EF4E6012EF60010EEDBB0188
:1002DB000B89828A83F0A3DFFCDEFA2289F05007B8
:1002EB00F709DFFCA9F022BBFEFCF309DFFCA9F048
:1002FB002290007FEFF07BFF7A1979F09000BEF02F
:10030B00121894900152E0FF12073390007FE0FF28
:10031B00900152F0EF1202A4034B00035702035F4C
:10032B0003038404039E0503C40603E00703FB08D1
:10033B0004180904360A04420B04620C0000047E04
:10034B0012183E7BFF7A1879B10203E97BFF7A150D
:10035B0079C0805212167E7D0C7F01120C977BFFA9
:10036B007A1879ACE4900087F07F207EBF7D02FC89
:10037B00120DFC9001530204797BFF7A1879B6E4D5
:10038B00900087F07FE87E03FDFC120DFC90015579
:10039B00020479E4FF1216537F0112165312184907
:1003AB007BFF7A1879B1E4900087F07F0AFEFDFCA1
:1003BB00120DFC9001550204791218497BFF7A1734
:1003CB0079EDE4900087F07F64FEFDFC120DFC904C
:1003DB0001550204791218867BFF7A1879C0E490D4
:1003EB000087F07F01FEFDFC120DFC900155807E15
:1003FB007F011218A07BFF7A1879C0E4900087F078
:10040B007F96FEFDFC120DFC9001558061E4FF12FE
:10041B0018A07BFF7A1879C5E4900087F07F3A7EAD
:10042B0007FDFC120DFC90015580437F011218A0B3
:10043B007D64E4FF0213617D03E4FF120C977BFFE5
:10044B007A1879B6E4900087F07FB87E0BFDFC122A
:10045B000DFC90015580177BFF7A1879B6E490005C
:10046B0087F07FB87E0BFDFC120DFC900155EEF072
:10047B00A3EFF02290015CEDF012001E24FD607BD7
:10048B0024FE7003020573240460030205DF900051
:10049B00011200371202A404BE0004C70104D002EB
:1004AB0004D90304E20404EB0504F40604FD07007D
:1004BB000005DF90015CE024FF92902290015CE04C
:1004CB0024FF92912290015CE024FF9292229001F2
:1004DB005CE024FF92932290015CE024FF92942233
:1004EB0090015CE024FF92952290015CE024FF9246
:1004FB00962290015CE024FF92972290000112005B
:10050B00371202A4052B00053401053D02054603F5
:10051B00054F04055805056106056A07000005DF50
:10052B0090015CE024FF92B02290015CE024FF92EA
:10053B00B12290015CE024FF92B22290015CE02496
:10054B00FF92B32290015CE024FF92B42290015CF5
:10055B00E024FF92B52290015CE024FF92B622903A
:10056B00015CE024FF92B7229000011200371202C7
:10057B00A405980005A10105AA0205B30305BC0457
:10058B0005C50505CE0605D707000005DF90015C04
:10059B00E024FF92C82290015CE024FF92C92290D4
:1005AB00015CE024FF92CA2290015CE024FF92CB15
:1005BB002290015CE024FF92CC2290015CE024FFAE
:1005CB0092CD2290015CE024FF92CE2290015CE060
:1005DB0024FF92CF2290013BEDF0C9EFC9E9C39400
:1005EB00024003020732EB4A700302073290013ECE
:1005FB00E0FCA3E0FD4C700302073290013BE0945A
:10060B006440037464F0CEEACECFEBCFEEC313FE9F
:10061B00EF13FF900140EEF0A3EFF0ECC313FEEDF0
:10062B0013FFE975F00AA4241AF582E43401F5836B
:10063B00E064037058E975F00AA4241BF582E434D6
:10064B0001F583E0FD90013BE0FCED6C703FE9753B
:10065B00F00AA4241DF582E43401F583E0FCA3E049
:10066B00FD900140E0FAA3E0FBED6B7002EC6A70C9
:10067B001CE975F00AA4241FF582E43401F583E02C
:10068B00FCA3E06F7002EC6E7003020732E975F0A9
:10069B000AA4241AF582E43401F5837403F0900163
:1006AB003BE0FDE975F00AA4241BF582E43401F567
:1006BB0083EDF0900140E0FCA3E0FDE975F00AA4A6
:1006CB00241DF582E43401F583ECF0A3EDF0E9751C
:1006DB00F00AA4241FF582E43401F583EEF0A3EFB6
:1006EB00F0E975F00AA4241DF582E43401F583E0EA
:1006FB00FEA3E0FFE975F00AA42421F582E434019E
:10070B00F583EEF0A3EFF0E975F00AA42423F5824C
:10071B00E43401F5837401F0CFE9CF12127D7BFF36
:10072B007A1B792112189422900080EFF07BFF7ACC
:10073B001A79009000BEF0121894900080E012021B
:10074B00A407710007810207910307B70407D505BA
:10075B0007F306081007082A08084409085E0A0868
:10076B00630B00000883C3900155E06480948050B4
:10077B00030208838044C3900155E0648094805049
:10078B0003020883803412170D7F01121653C39096
:10079B000153E0648094805003020883E0FEA3E0E1
:1007AB00FF1216C974FF900153020880C3900155C4
:1007BB00E0648094805003020883E0FEA3E0FF1204
:1007CB0016C974FF900155020880C3900155E0646F
:1007DB008094805003020883E0FEA3E0FF1216C949
:1007EB0074FF900155020880C3900155E06480941A
:1007FB00805003020883E0FEA3E0FF1216C974FFCA
:10080B009001558070C3900155E0648094804068DE
:10081B00E0FEA3E0FF1216C974FF9001558056C38A
:10082B00900155E064809480404EE0FEA3E0FF12FF
:10083B0016C974FF900155803CC3900155E064804C
:10084B0094804034E0FEA3E0FF1216C974FF9001C0
:10085B00558022E4FF021653E4FF121653C3900196
:10086B0055E0648094804010E0FEA3E0FF1216C9AF
:10087B0074FF900155F0A3F022E49000BCF09000BF
:10088B00BCE075F006A4242EF582E43401F583E078
:10089B0014601214603F240260030209799000BCBB
:1008AB00E0FFE4802C9000BCE075F006A4242FF54B
:1008BB0082E43401F583E075F080A4FFAEF07C0098
:1008CB007D641200649000BDEFF09000BCE0FFA3CC
:1008DB00E0FD0209769000BCE075F006A42430F52B
:1008EB0082E43401F583E0FF9000BCE075F006A4D0
:1008FB002431F582E43401F583E004F0C39F4045D5
:10090B009000BCE075F006A42431F582E43401F5C7
:10091B0083E4F09000BCE075F006A42432F582E489
:10092B003401F583E475F0011200B9C3940140154D
:10093B009000BCE075F006A42432F582E43401F596
:10094B0083E4F0A3F09000BCE075F006A42432F52C
:10095B0082E43401F583E0FEA3E024CAF582741827
:10096B003EF583E493FD9000BCE0FF12186F9000FE
:10097B00BCE004F0E0C39402500302088922E49027
:10098B0000BBF09000BBE075F00AA4241AF582E4DA
:10099B003401F583E064036003020A479000BBE077
:1009AB0075F00AA42421F582E43401F58374FFF574
:1009BB00F01200B945F06003020A479000BBE075E6
:1009CB00F00AA42423F582E43401F583E07F007060
:1009DB00027F019000BBE075F00AA42423F582E4AA
:1009EB003401F583EFF09000BBE075F00AA42423EB
:1009FB00F582E43401F583E09000BB600EE075F006
:100A0B000AA4241DF582E43401800CE075F00AA4DD
:100A1B00241FF582E43401F583E0FEA3E0FF900090
:100A2B00BBE075F00AA42421F582E43401F583EED2
:100A3B00F0A3EFF09000BBE0FF12127D9000BBE043
:100A4B0004F0E0C39402500302098E020884120DD5
:100A5B004B12000390007CEFF0900152E01202A4C5
:100A6B000A87010A9E020AA8030AF4060AFE080B6B
:100A7B0000090B030A0B130B00000B1E12189AEF45
:100A8B006002801590007CE064026003020B1E7F05
:100A9B0002807D12189AEF607A7F06807312189A83
:100AAB00EF60047F05806990007CE0B4030E7F0447
:100ABB001202FC7BFF7A1A790F02189412185490C9
:100ACB00007DEEF0A3EFF0C39454EE940B50047D35
:100ADB00038011D390007EE094F090007DE0940AA7
:100AEB0040317D0C7F01020C9712189AEF70247F16
:100AFB0005801D800002149B121854C3EF94A0EEC6
:100B0B00940F500F7F07800812189AEF60057F062D
:100B1B001202FC22E4900080F0A3F0900082F0A37C
:100B2B00F090008412024F00000000900088120227
:100B3B004F0000000090008C12024F000000007F5D
:100B4B000F121514900080EEF0A3EFF0900080E0F0
:100B5B007002A3E0700D7BFF7A1A7962121894E48D
:100B6B00FEFF227F0E121514900082EEF0A3EFF021
:100B7B00900080E0FEA3E0FFCBEFCBCAEECAE4F916
:100B8B00F87F5A7E937D12FC12015A900084120258
:100B9B0043900082E0FEA3E0FFE4FCFD9000841292
:100BAB00022B1200CFE47BFF7A03F9F812015A9063
:100BBB000088120243E47F02FEFDFC9000881202C3
:100BCB002B1200CF90008C12024390008C12021F4C
:100BDB0022120B1F90007CEEF0A3EFF0C390015993
:100BEB00E09F900158E09E5013E0FEA3E0FFC390FE
:100BFB00007DE09FFF90007CE09E801490007CE0E5
:100C0B00FEA3E0FFC3900159E09FFF900158E09EC7
:100C1B0090007EF0A3EFF0D390007FE09432900031
:100C2B007EE09400502590007CE0FEA3E0FF900155
:100C3B0058EEF0A3EFF0E4900157F07BFF7A1A79AE
:100C4B00719000BEEEF0A3EFF0803D900157E004F1
:100C5B00F0E0C39403401490007CE0FFA3E090010C
:100C6B0058CFF0A3EFF0E4900157F07BFF7A1A799D
:100C7B008C90007CE0FFA3E09000BECFF0A3EFF0E0
:100C8B00900157E09000C0F012189422900081ED73
:100C9B00F0900080EFF0C394024003020D4AA3E0F2
:100CAB00FF7003020D4A900080E0FE75F00AA42449
:100CBB001AF582E43401F583E0B40212EE75F00A02
:100CCB00A4241CF582E43401F583E06F607190007D
:100CDB0080E0FF75F00AA4241AF582E43401F58351
:100CEB007402F0900081E0FEEF75F00AA4241CF56D
:100CFB0082E43401F583EEF0900080E0FF75F00A9A
:100D0B00A4241BF582E43401F583E07011EF75F038
:100D1B000AA4241BF582E43401F5837464F090007B
:100D2B0080E0FF12127D7BFF7A1B7902900080E03E
:100D3B009000BEF0900081E09000BFF0121894225A
:100D4B00E490007FF0A3F090007FE0FEA3E0FFC3F0
:100D5B009402EE648094804003020DFBEF75F00C5F
:100D6B00A42429F8120280EA494B607790007FA3F4
:100D7B00E075F00CA42421F8120213E4FBFAF9F845
:100D8B00C3120202705D90007FA3E0FF75F00CA40C
:100D9B002429F8120280A312029BEF75F00CA424F5
:100DAB002CF8E6602090007FA3E0FFCBEFCB75F033
:100DBB000CA42425F8120213EB75F00CA42421F8D3
:100DCB0012023780157B007A00790090007FA3E038
:100DDB0075F00CA42429F81202899000811202925A
:100DEB001202CA90007FE475F0011200B9020D5295
:100DFB002290008012024390008412029BE4900028
:100E0B0088F0A3F0900088E0FEA3E0FFC39402EE0D
:100E1B0064809480507AEF75F00CA42429F81202A8
:100E2B0080CEEACECFE9CFEF4E7058900080120201
:100E3B001F900088A3E0FB75F00CA42421F812028C
:100E4B003790008012021FEB75F00CA42425F812CA
:100E5B000237900084120292900088E0FEA3E0FF1C
:100E6B00CDEFCD75F00CA42429F8120289900087E0
:100E7B00E07C0060027C01ED75F00CA4242CF8C61C
:100E8B00ECC622900088E475F0011200B9020E0F37
:100E9B007EFF7FFF221218A6EF6022900149E0C36C
:100EAB0094325003E004F0900149E06432702A90D0
:100EBB000148E0702404F090014CF0801C90014933
:100ECB00E0600214F0900149E0700E900148E06080
:100EDB0008E4F090014AF0A3F0900148E0605390D1
:100EEB00014AE0FEA3E0FFE4FCFD7B607AEAF9F83F
:100EFB00D31201EC400A90014AE475F0011200B9DB
:100F0B0090014AE0B40112A3E0B4F40DA37402F013
:100F1B007BFF7A1A79AF12189490014AE0B407124A
:100F2B00A3E0B4D00DA37403F07BFF7A1A79D2122D
:100F3B00189422410148004101490042014A000036
:100F4B0041014C0041015100410157004201580041
:100F5B00001239010101020103010401050106011F
:100F6B000703010504024B0100420143000041014C
:100F7B00420041014500420146000041015A004137
:100F8B00015B004200E7008A4100E9014200EA00F0
:100F9B0000C100602A00F0004F004E004D004D00D4
:100FAB004C004C004B004B004A004A0049004900E2
:100FBB0048004800470047004600460045004500F2
:100FCB004441015200420153FFFF420155FFFF0014
:100FDB00121194E490007CF090007CE0FFC394022B
:100FEB004003021073EF75F00AA4241AF582E4345F
:100FFB0001F583E4F0EF75F00AA4241BF582E434C9
:10100B0001F583E4F0EF75F00AA4241CF582E434B7
:10101B0001F5837401F0EF75F00AA4241DF582E449
:10102B003401F583E4F0A3F0EF75F00AA4241FF567
:10103B0082E43401F583E4F0A3F0EF75F00AA42405
:10104B0021F582E43401F583E4F0A3F0EF75F00AA7
:10105B00A42423F582E43401F583E4F012127D908D
:10106B00007CE004F0020FE322900151E07030901D
:10107B0000E6F09000E6E025E0244DF582E4340133
:10108B00F583E0FF9000E6E025E0244EF582E434A2
:10109B0001F583EFF09000E6E004F0E0B402D4E455
:1010AB009000E6F09000E6E025E0244EF582E43473
:1010BB0001F583E070079000E6E0FF80239000E6E7
:1010CB00E025E0244EF582E43401F583E0FF900146
:1010DB0051E0D39F9000E6E0FF500512181A8003F1
:1010EB001218269000E6E004F0E0C3940240B5909D
:1010FB000151E004F0C394804002E4F022787FE4D5
:10110B00F6D8FD75814C02114F0216EDE493A3F84E
:10111B00E493A34003F68001F208DFF48029E49303
:10112B00A3F85407240CC8C333C4540F4420C883FA
:10113B004004F456800146F6DFE4800B01020408FC
:10114B0010204080900F3EE47E019360BCA3FF54BF
:10115B003F30E509541FFEE493A360010ECF54C04A
:10116B0025E060A840B8E493A3FAE493A3F8E493D2
:10117B00A3C8C582C8CAC583CAF0A3C8C582C8CADA
:10118B00C583CADFE9DEE780BE1217BC121589E4FE
:10119B0090007DF090007DE0FFC39402505FEF75EF
:1011AB00F006A4242EF582E43401F583E4F0EF7508
:1011BB00F006A4242FF582E43401F583E4F0EF75F7
:1011CB00F006A42430F582E43401F5837401F0EFCA
:1011DB0075F006A42432F582E43401F583E4F0A320
:1011EB00F0EF75F006A42431F582E43401F583E4C5
:1011FB00F0FD12186F90007DE004F0809722E490D0
:10120B0000BBF0A3F09000BBE0FEA3E0FFC3940291
:10121B00EE64809480505AEF75F00CA42429F812D8
:10122B000280EA494B603E9000BBA3E0CBEFCB754D
:10123B00F00CA42421F8120213EC4D4E4F6026EB58
:10124B0075F00CA42421F8120213EF24FFFFEE34E7
:10125B00FFFEED34FFFDEC34FFFCEB75F00CA4242A
:10126B0021F81202379000BBE475F0011200B9802F
:10127B0094229000BCEFF075F00AA4241AF582E4D6
:10128B003401F583E014600F1460111460252403FE
:10129B0070539000BC80479000BC802E9000BCE047
:1012AB00FF75F00AA4241CF582E43401F583E0FDFC
:1012BB000216259000BCE075F00AA42423F582E405
:1012CB003401F583E09000BC6014E0FF75F00AA4D4
:1012DB00241BF582E43401F583E0FD0215F3E0FFF6
:1012EB00E4FD1217A22230006C9000EAE475F001C5
:1012FB001200B9FEC3E5F09419EE94004057E49048
:10130B0000EAF0A3F09000E9E0601A9000E8E094A6
:10131B009E9000E7E0940050028028E49000E9F0F2
:10132B009000E7800FD39000E8E0948A9000E7E00C
:10133B009400400674FFF5F0800D9000E97401F005
:10134B009000E7E475F0011200B99000E7E0FEA30E
:10135B00E0FF1213C322EFC39402505BED94644081
:10136B00027D64EF75F00AA4241AF582E43401F5CA
:10137B0083E0B40112EF75F00AA4241BF582E43468
:10138B0001F583E06D6030EF75F00AA4241AF58245
:10139B00E43401F5837401F0CEEDCEEF75F00AA4C1
:1013AB00241BF582E43401F583EEF012127D7BFFF2
:1013BB007A1A79F412189422EF24769000BBF0E09D
:1013CB0025E024F0F582E43400F583E0FFA3E09000
:1013DB0000BCCFF0A3EFF09000BCE0A2E713FFA39B
:1013EB00E013A3CFF0A3EFF09000BEE0FF90FEDB85
:1013FB00EFF09000BEE0A3E090FEDCF09000BCE0CC
:10140B00FF90FED2EFF09000BCE0A3E090FED3F093
:10141B0022EFC39402503BEF14602C047034ED6048
:10142B0013D292D293D294D295D296D297D2CCD2C7
:10143B0091D2B122C292C293C294C295C296C29764
:10144B00C2CCC291C2B122CFEDCFEF6003D29022BA
:10145B00C2902243B20853B1F743BA8090FEB2E078
:10146B00543F44C0F090FEB1E04480F090FED0E4D5
:10147B00F0A3F090FECB7468F090FECD7440F0902A
:10148B00FEDD7480F090FEC0F07F8A7E000213C3F5
:10149B00121854C3EF9404EE941040197F0A1202F1
:1014AB00FC1218549000BEEEF0A3EFF07BFF7A1AFB
:1014BB007931021894121854C3EF94ACEE940D507A
:1014CB00047D0380027D0CE4FF120C9722C0E0C068
:1014DB00F0C083C082C0D075D0081218329001437F
:1014EB00E475F0011200B9FEC3E5F09464EE9400CC
:1014FB00400C900143E4F0A3F090014204F0D0D0F3
:10150B00D082D083D0F0D0E032E4900090F0A3F002
:10151B00A3F0121877E4900090F012172D90009121
:10152B00EE8FF01200B9900090E004F0E0C3940845
:10153B0040E87803900091E0FEA3E0CEC313CE13F6
:10154B00D8F9FF22C3900159E094E4900158E0943C
:10155B000C50037F0022D3900159E09468900158FE
:10156B00E0941040037F6422900159E0241CFF900B
:10157B000158E034F3FE7C007D0912006422E490F4
:10158B00007EF090007EE0FFC394025027EF25E031
:10159B00244DF582E43401F583E4F0EF25E0244E8D
:1015AB00F582E43401F583E4F012182690007EE016
:1015BB0004F080CF22121854D3EF94F0EE940A402B
:1015CB000D7BFF7A1979CA1218947F0380161218B3
:1015DB00549000BEEEF0A3EFF07BFF7A1979DB128B
:1015EB0018947F0B1202FC22EFC39402502BED9444
:1015FB006440027D64CEEDCEEF75F006A4242FF58A
:10160B0082E43401F583EEF0EF75F006A4242EF599
:10161B0082E43401F5837401F022EFC39402502766
:10162B00ED6024CEEDCEEF75F006A42430F582E408
:10163B003401F583EEF0EF75F006A4242EF582E469
:10164B003401F5837402F022EFC394025024EF753A
:10165B00F00AA4241AF582E43401F583E06013EF59
:10166B0075F00AA4241AF582E43401F583E4F01230
:10167B00127D229000E7E4F0A3748AF09000E974E5
:10168B0001F0E4A3F0A3F0D20090FEC0E04401F01F
:10169B007BFF7A1B792F021894438E805389F07548
:1016AB008ACD758CD4C28DD28CD2A9438E405389EE
:1016BB000F758BAE758DFBC28FD28ED2AB22C3EE64
:1016CB0064809480401BEF9402EE648094805011F0
:1016DB007B007A007900EF75F00CA42429F8120234
:1016EB008922C2AF12000E1216A412178712145EB3
:1016FB00D2AF120A59900142E060F7E4F0120BDC12
:10170B0080F090FEDBE4F0A3F090FEC704F090FEB7
:10171B00C0E054FEF0C2B3C2007BFF7A1B793D02DE
:10172B00189443BC400000E5BC30E5FB53BCDFAF75
:10173B00BDEF75F004A4FFAEF0E5BE5403FDEF4D15
:10174B00FF22EFC394025018ED948040027D80CEAF
:10175B00EDCEEF25E0244DF582E43401F583EEF078
:10176B0022C0E0C0F0C083C082C0D075D010121070
:10177B0074D0D0D082D083D0F0D0E032120FDB12F5
:10178B00180C1217FD121866E4FF1216537F011284
:10179B001653E4FF0202FCEFC394025013CEEDCEBE
:1017AB00EF75F006A4242EF582E43401F583EEF0F8
:1017BB00227592FFE4F591F59043B20253B1FDC24D
:1017CB00B143CA1053C9EFC2CC22438E805389F068
:1017DB00758A9A758CA9C28DD28C308DFDC28CC244
:1017EB008D2212189AEF60047F0780027F05120288
:1017FB00FC227E007F187D007B007A00792102029B
:10180B00D0E4900148F0A3F0A3F0A3F0A3F022EFF3
:10181B00C3940250057D0112141C22EFC394025095
:10182B0005E4FD12141C221212F1121209120EA061
:10183B00020989D2B77BFF7A1B794A021894C2B787
:10184B007BFF7A1B7954021894900158E0FEA3E0B9
:10185B00FF22E4F5DE75BC800217D543B28053B18D
:10186B007FC2B722CEEDCECDCD02174DEF540F4434
:10187B0080F5BC2253B2EF43B1102243B21053B1E7
:10188B00EF2253B2FB43B104229000BB02029BA296
:10189B00B4E433FF22EF24FF92B422A2B2E433FF6D
:1018AB00227F030202FC7F010202FC7F050202FC85
:1018BB007F070202FC7F090202FC7F080202FC0187
:1018CB0001010101010101010101020202020202F7
:1018DB0003030303030404040505050606060707B3
:1018EB0007080809090A0A0B0B0C0D0D0E0E0F1039
:1018FB001111121313141516171718191A1B1C1D77
:10190B001E1F2021222324252627292A2B2C2D2F6D
:10191B0030313234353638393B3C3E3F404244451A
:10192B0047484A4B4D4F5052545657595B5D5F6178
:10193B00626466686A6C6E70727476797B7D7F7F89
:10194B007D7B79767472706E6C6A68666462615FB7
:10195B005D5B5957565452504F4D4B4A484745447F
:10196B0042403F3E3C3B39383635343231302F2DF7
:10197B002C2B2A2927262524232221201F1E1D1C20
:10198B001B1A191817171615141313121111100F00
:10199B000E0E0D0D0C0B0B0A0A0909080807070799
:1019AB0006060605050504040403030303030202EC
:1019BB0002020202010101010101010101010166A3
:1019CB00736D204F46463A206D76206F6B0D0A00E3
:1019DB0066736D204F46463A206D76206C6F7720EC
:1019EB0025750D0A0066736D20656E746572202572
:1019FB0062750D0A0066736D206578697420256227
:101A0B00750D0A0066736D5F6C6F6F7020776F7268
:101A1B006B20544F5543485F4556545F50524553C6
:101A2B00535F32530A0066736D5F6C6F6F70207774
:101A3B006F726B204348415247455F494E49542CC6
:101A4B0020656E746572204348415247455F465589
:101A5B004C4C2025750A0068616C2062675F7261CF
:101A6B00772030210A0068616C5F62617474657263
:101A7B00795F7461736B206E65775F6D762025756A
:101A8B000068616C5F626174746572795F74617315
:101A9B006B206E65775F6D7620257520636E7420E5
:101AAB0025627500746F7563682073657276636564
:101ABB0020544F5543485F4556545F50524553533E
:101ACB005F3530300D0A00746F7563682073657273
:101ADB0076636520544F5543485F4556545F5052CB
:101AEB004553535F32530D0A006C65645F736D5F32
:101AFB00636F6E73740A006C65645F736D5F627203
:101B0B006561746865206368202562752064697659
:101B1B00202562750A006C65645F736D5F626C698A
:101B2B006E6B0A0068616C5F75735F7374617274BE
:101B3B000A0068616C5F75735F73746F700A007075
:101B4B006F7765725F6F6E0A00706F7765725F6F8C
:041B5B0066660A00B0
:00000001FF
