:1000000002110C90014AE0FFE4F0220214A8121839
:0A0010005A53B2BF43B14002187CFE
:10001B00021769BB010689828A83E0225002E7221C
:10002B00BBFE02E32289828A83E49322BB010CE5A7
:10003B008229F582E5833AF583E0225006E9258291
:10004B00F8E622BBFE06E92582F8E222E58229F5D5
:10005B0082E5833AF583E49322BC000BBE0029EFC3
:10006B008DF084FFADF022E4CCF875F008EF2FFF94
:10007B00EE33FEEC33FCEE9DEC984005FCEE9DFE62
:10008B000FD5F0E9E4CEFD22EDF8F5F0EE8420D2A9
:10009B001CFEADF075F008EF2FFFED33FD40079818
:1000AB005006D5F0F222C398FD0FD5F0EA22C5F029
:1000BB00F8A3E028F0C5F0F8E582158270021583ED
:1000CB00E038F022E88FF0A4CC8BF0A42CFCE98E66
:1000DB00F0A42CFC8AF0EDA42CFCEA8EF0A4CDA8A5
:1000EB00F08BF0A42DCC3825F0FDE98FF0A42CCDAE
:1000FB0035F0FCEB8EF0A4FEA9F0EB8FF0A4CFC58E
:10010B00F02ECD39FEE43CFCEAA42DCE35F0FDE417
:10011B003CFC2275F008758200EF2FFFEE33FECD0D
:10012B0033CDCC33CCC58233C5829BED9AEC99E5AC
:10013B008298400CF582EE9BFEED9AFDEC99FC0F3C
:10014B00D5F0D6E4CEFBE4CDFAE4CCF9A88222B804
:10015B0000C1B90059BA002DEC8BF084CFCECDFC89
:10016B00E5F0CBF97818EF2FFFEE33FEED33FDEC16
:10017B0033FCEB33FB10D703994004EB99FB0FD8FF
:10018B00E5E4F9FA227818EF2FFFEE33FEED33FD9D
:10019B00EC33FCC933C910D7059BE99A4007EC9B9C
:1001AB00FCE99AF90FD8E0E4C9FAE4CCFB2275F02C
:1001BB0010EF2FFFEE33FEED33FDCC33CCC833C83D
:1001CB0010D7079BEC9AE899400AED9BFDEC9AFC43
:1001DB00E899F80FD5F0DAE4CDFBE4CCFAE4C8F9F2
:1001EB0022EB9FF5F0EA9E42F0E99D42F0EC648031
:1001FB00C864809845F022EB9FF5F0EA9E42F0E947
:10020B009D42F0E89C45F022E6FC08E6FD08E6FE80
:10021B0008E6FF22E0FCA3E0FDA3E0FEA3E0FF2243
:10022B00E0F8A3E0F9A3E0FAA3E0FB22ECF608ED7B
:10023B00F608EEF608EFF622ECF0A3EDF0A3EEF0E5
:10024B00A3EFF022A8828583F0D083D082120266BE
:10025B00120266120266120266E473E493A3C5836C
:10026B00C5F0C583C8C582C8F0A3C583C5F0C583D7
:10027B00C8C582C822E6FB08E6FA08E6F922EBF6C7
:10028B0008EAF608E9F622E0FBA3E0FAA3E0F9227C
:10029B00EBF0A3EAF0A3E9F022D083D082F8E49349
:1002AB007012740193700DA3A393F8740193F582EC
:1002BB008883E4737402936860EFA3A3A380DF8A3F
:1002CB00838982E473EF4E6012EF60010EEDBB0188
:1002DB000B89828A83F0A3DFFCDEFA2289F05007B8
:1002EB00F709DFFCA9F022BBFEFCF309DFFCA9F048
:1002FB002290007FEFF07BFF7A1979ED9000BEF032
:10030B00121891900150E0FF12073390007FE0FF2D
:10031B00900150F0EF1202A4034B00035702035F4E
:10032B0003038404039E0503C40603E00703FB08D1
:10033B0004180904360A04420B04620C0000047E04
:10034B0012183B7BFF7A1879AE0203E97BFF7A1513
:10035B007990805212167B7D0C7F01120C977BFFDC
:10036B007A1879A9E4900087F07F207EBF7D02FC8C
:10037B00120DFC9001510204797BFF7A1879B3E4DA
:10038B00900087F07FE87E03FDFC120DFC9001537B
:10039B00020479E4FF1216507F0112165012184610
:1003AB007BFF7A1879AEE4900087F07F0AFEFDFCA4
:1003BB00120DFC9001530204791218467BFF7A1739
:1003CB0079EAE4900087F07F64FEFDFC120DFC904F
:1003DB0001530204791218837BFF7A1879BDE490DC
:1003EB000087F07F01FEFDFC120DFC900153807E17
:1003FB007F0112189D7BFF7A1879BDE4900087F07E
:10040B007F96FEFDFC120DFC9001538061E4FF1200
:10041B00189D7BFF7A1879C2E4900087F07F3A7EB3
:10042B0007FDFC120DFC90015380437F0112189DB8
:10043B007D64E4FF0213667D03E4FF120C977BFFE0
:10044B007A1879B3E4900087F07FB87E0BFDFC122D
:10045B000DFC90015380177BFF7A1879B3E4900061
:10046B0087F07FB87E0BFDFC120DFC900153EEF074
:10047B00A3EFF02290015AEDF012001E24FD607BD9
:10048B0024FE7003020573240460030205DF900051
:10049B00011200371202A404BE0004C70104D002EB
:1004AB0004D90304E20404EB0504F40604FD07007D
:1004BB000005DF90015AE024FF92902290015AE050
:1004CB0024FF92912290015AE024FF9292229001F4
:1004DB005AE024FF92932290015AE024FF92942237
:1004EB0090015AE024FF92952290015AE024FF924A
:1004FB00962290015AE024FF92972290000112005D
:10050B00371202A4052B00053401053D02054603F5
:10051B00054F04055805056106056A07000005DF50
:10052B0090015AE024FF92B02290015AE024FF92EE
:10053B00B12290015AE024FF92B22290015AE0249A
:10054B00FF92B32290015AE024FF92B42290015AF9
:10055B00E024FF92B52290015AE024FF92B622903C
:10056B00015AE024FF92B7229000011200371202C9
:10057B00A405980005A10105AA0205B30305BC0457
:10058B0005C50505CE0605D707000005DF90015A06
:10059B00E024FF92C82290015AE024FF92C92290D6
:1005AB00015AE024FF92CA2290015AE024FF92CB19
:1005BB002290015AE024FF92CC2290015AE024FFB2
:1005CB0092CD2290015AE024FF92CE2290015AE064
:1005DB0024FF92CF22900139EDF0C9EFC9E9C39402
:1005EB00024003020732EB4A700302073290013CD0
:1005FB00E0FCA3E0FD4C7003020732900139E0945C
:10060B006440037464F0CEEACECFEBCFEEC313FE9F
:10061B00EF13FF90013EEEF0A3EFF0ECC313FEEDF2
:10062B0013FFE975F00AA42418F582E43401F5836D
:10063B00E064037058E975F00AA42419F582E434D8
:10064B0001F583E0FD900139E0FCED6C703FE9753D
:10065B00F00AA4241BF582E43401F583E0FCA3E04B
:10066B00FD90013EE0FAA3E0FBED6B7002EC6A70CB
:10067B001CE975F00AA4241DF582E43401F583E02E
:10068B00FCA3E06F7002EC6E7003020732E975F0A9
:10069B000AA42418F582E43401F5837403F0900165
:1006AB0039E0FDE975F00AA42419F582E43401F56B
:1006BB0083EDF090013EE0FCA3E0FDE975F00AA4A8
:1006CB00241BF582E43401F583ECF0A3EDF0E9751E
:1006DB00F00AA4241DF582E43401F583EEF0A3EFB8
:1006EB00F0E975F00AA4241BF582E43401F583E0EC
:1006FB00FEA3E0FFE975F00AA4241FF582E43401A0
:10070B00F583EEF0A3EFF0E975F00AA42421F5824E
:10071B00E43401F5837401F0CFE9CF1212817BFF32
:10072B007A1B791E12189122900080EFF07BFF7AD2
:10073B001979FD9000BEF0121891900080E0120222
:10074B00A407710007810207910307B70407D505BA
:10075B0007F306081007082A08084409085E0A0868
:10076B00630B00000883C3900153E06480948050B6
:10077B00030208838044C3900153E064809480504B
:10078B0003020883803412170A7F01121650C3909C
:10079B000151E0648094805003020883E0FEA3E0E3
:1007AB00FF1216C674FF900151020880C3900153CB
:1007BB00E0648094805003020883E0FEA3E0FF1204
:1007CB0016C674FF900153020880C3900153E06476
:1007DB008094805003020883E0FEA3E0FF1216C64C
:1007EB0074FF900153020880C3900153E06480941E
:1007FB00805003020883E0FEA3E0FF1216C674FFCD
:10080B009001538070C3900153E0648094804068E2
:10081B00E0FEA3E0FF1216C674FF9001538056C38F
:10082B00900153E064809480404EE0FEA3E0FF1201
:10083B0016C674FF900153803CC3900153E0648053
:10084B0094804034E0FEA3E0FF1216C674FF9001C3
:10085B00538022E4FF021650E4FF121650C390019E
:10086B0053E0648094804010E0FEA3E0FF1216C6B4
:10087B0074FF900153F0A3F022E49000BCF09000C1
:10088B00BCE075F006A4242CF582E43401F583E07A
:10089B0014601214603F240260030209799000BCBB
:1008AB00E0FFE4802C9000BCE075F006A4242DF54D
:1008BB0082E43401F583E075F080A4FFAEF07C0098
:1008CB007D641200649000BDEFF09000BCE0FFA3CC
:1008DB00E0FD0209769000BCE075F006A4242EF52D
:1008EB0082E43401F583E0FF9000BCE075F006A4D0
:1008FB00242FF582E43401F583E004F0C39F4045D7
:10090B009000BCE075F006A4242FF582E43401F5C9
:10091B0083E4F09000BCE075F006A42430F582E48B
:10092B003401F583E475F0011200B9C3940140154D
:10093B009000BCE075F006A42430F582E43401F598
:10094B0083E4F0A3F09000BCE075F006A42430F52E
:10095B0082E43401F583E0FEA3E024C7F58274182A
:10096B003EF583E493FD9000BCE0FF12186C900001
:10097B00BCE004F0E0C39402500302088922E49027
:10098B0000BBF09000BBE075F00AA42418F582E4DC
:10099B003401F583E064036003020A479000BBE077
:1009AB0075F00AA4241FF582E43401F58374FFF576
:1009BB00F01200B945F06003020A479000BBE075E6
:1009CB00F00AA42421F582E43401F583E07F007062
:1009DB00027F019000BBE075F00AA42421F582E4AC
:1009EB003401F583EFF09000BBE075F00AA42421ED
:1009FB00F582E43401F583E09000BB600EE075F006
:100A0B000AA4241BF582E43401800CE075F00AA4DF
:100A1B00241DF582E43401F583E0FEA3E0FF900092
:100A2B00BBE075F00AA4241FF582E43401F583EED4
:100A3B00F0A3EFF09000BBE0FF1212819000BBE03F
:100A4B0004F0E0C39402500302098E020884120DD5
:100A5B004B12000390007CEFF0900150E01202A4C7
:100A6B000A87010A9E020AA8030AF4060AFE080B6B
:100A7B0000090B030A0B130B00000B1E121897EF48
:100A8B006002801590007CE064026003020B1E7F05
:100A9B0002807D121897EF607A7F06807312189789
:100AAB00EF60047F05806990007CE0B4030E7F0447
:100ABB001202FC7BFF7A1A790C02189112185190D2
:100ACB00007DEEF0A3EFF0C39454EE940B50047D35
:100ADB00038011D390007EE094F090007DE0940AA7
:100AEB0040317D0C7F01020C97121897EF70247F19
:100AFB0005801D8000021623121851C3EF94A0EE3F
:100B0B00940F500F7F078008121897EF60057F0630
:100B1B001202FC22E4900080F0A3F0900082F0A37C
:100B2B00F090008412024F00000000900088120227
:100B3B004F0000000090008C12024F000000007F5D
:100B4B000F1214E4900080EEF0A3EFF0900080E021
:100B5B007002A3E0700D7BFF7A1A795F121891E493
:100B6B00FEFF227F0E1214E4900082EEF0A3EFF052
:100B7B00900080E0FEA3E0FFCBEFCBCAEECAE4F916
:100B8B00F87F5A7E937D12FC12015A900084120258
:100B9B0043900082E0FEA3E0FFE4FCFD9000841292
:100BAB00022B1200CFE47BFF7A03F9F812015A9063
:100BBB000088120243E47F02FEFDFC9000881202C3
:100BCB002B1200CF90008C12024390008C12021F4C
:100BDB0022120B1F90007CEEF0A3EFF0C390015795
:100BEB00E09F900156E09E5013E0FEA3E0FFC39000
:100BFB00007DE09FFF90007CE09E801490007CE0E5
:100C0B00FEA3E0FFC3900157E09FFF900156E09ECB
:100C1B0090007EF0A3EFF0D390007FE09432900031
:100C2B007EE09400502590007CE0FEA3E0FF900155
:100C3B0056EEF0A3EFF0E4900155F07BFF7A1A79B2
:100C4B006E9000BEEEF0A3EFF0803D900155E004F6
:100C5B00F0E0C39403401490007CE0FFA3E090010C
:100C6B0056CFF0A3EFF0E4900155F07BFF7A1A79A1
:100C7B008990007CE0FFA3E09000BECFF0A3EFF0E3
:100C8B00900155E09000C0F012189122900081ED78
:100C9B00F0900080EFF0C394024003020D4AA3E0F2
:100CAB00FF7003020D4A900080E0FE75F00AA42449
:100CBB0018F582E43401F583E0B40212EE75F00A04
:100CCB00A4241AF582E43401F583E06F607190007F
:100CDB0080E0FF75F00AA42418F582E43401F58353
:100CEB007402F0900081E0FEEF75F00AA4241AF56F
:100CFB0082E43401F583EEF0900080E0FF75F00A9A
:100D0B00A42419F582E43401F583E07011EF75F03A
:100D1B000AA42419F582E43401F5837464F090007D
:100D2B0080E0FF1212817BFF7A1A79FF900080E03E
:100D3B009000BEF0900081E09000BFF0121891225D
:100D4B00E490007FF0A3F090007FE0FEA3E0FFC3F0
:100D5B009402EE648094804003020DFBEF75F00C5F
:100D6B00A42429F8120280EA494B607790007FA3F4
:100D7B00E075F00CA42421F8120213E4FBFAF9F845
:100D8B00C3120202705D90007FA3E0FF75F00CA40C
:100D9B002429F8120280A312029BEF75F00CA424F5
:100DAB002CF8E6602090007FA3E0FFCBEFCB75F033
:100DBB000CA42425F8120213EB75F00CA42421F8D3
:100DCB0012023780157B007A00790090007FA3E038
:100DDB0075F00CA42429F81202899000811202925A
:100DEB001202CA90007FE475F0011200B9020D5295
:100DFB002290008012024390008412029BE4900028
:100E0B0088F0A3F0900088E0FEA3E0FFC39402EE0D
:100E1B0064809480507AEF75F00CA42429F81202A8
:100E2B0080CEEACECFE9CFEF4E7058900080120201
:100E3B001F900088A3E0FB75F00CA42421F812028C
:100E4B003790008012021FEB75F00CA42425F812CA
:100E5B000237900084120292900088E0FEA3E0FF1C
:100E6B00CDEFCD75F00CA42429F8120289900087E0
:100E7B00E07C0060027C01ED75F00CA4242CF8C61C
:100E8B00ECC622900088E475F0011200B9020E0F37
:100E9B007EFF7FFF2241014600410147004201488E
:100EAB00000041014A0041014F0041015500420140
:100EBB005600001239010101020103010401050171
:100ECB0006010703010504024B010042014100002A
:100EDB0041014000410143004201440000410158DF
:100EEB0000410159004200E700784100E90142004E
:100EFB00EA0000C1005600EC005B00590058005698
:100F0B0000550054005200510050004F004E560146
:100F1B0002002500220020001E001B0019001700F4
:100F2B001500130012001041015000420151FFFF48
:100F3B00420153FFFF001218A3EF6022900147E01C
:100F4B00C394325003E004F0900147E06432702AFE
:100F5B00900146E0702404F090014AF0801C90014F
:100F6B0047E0600214F0900147E0700E900146E0FC
:100F7B006008E4F0900148F0A3F0900146E0605364
:100F8B00900148E0FEA3E0FFE4FCFD7B607AEAF908
:100F9B00F8D31201EC400A900148E475F0011200FD
:100FAB00B9900148E0B40112A3E0B4F40DA37402AC
:100FBB00F07BFF7A1A79AC121891900148E0B407D4
:100FCB0012A3E0B4D00DA37403F07BFF7A1A79CF90
:100FDB0012189122121198E490007CF090007CE0A2
:100FEB00FFC394024003021077EF75F00AA4241894
:100FFB00F582E43401F583E4F0EF75F00AA42419CB
:10100B00F582E43401F583E4F0EF75F00AA4241AB9
:10101B00F582E43401F5837401F0EF75F00AA42432
:10102B001BF582E43401F583E4F0A3F0EF75F00ACD
:10103B00A4241DF582E43401F583E4F0A3F0EF75ED
:10104B00F00AA4241FF582E43401F583E4F0A3F045
:10105B00EF75F00AA42421F582E43401F583E4F062
:10106B0012128190007CE004F0020FE72290014FF6
:10107B00E070309000E6F09000E6E025E0244BF5C0
:10108B0082E43401F583E0FF9000E6E025E0244C98
:10109B00F582E43401F583EFF09000E6E004F0E034
:1010AB00B402D4E49000E6F09000E6E025E0244C96
:1010BB00F582E43401F583E070079000E6E0FF80F1
:1010CB00239000E6E025E0244CF582E43401F5831F
:1010DB00E0FF90014FE0D39F9000E6E0FF50051238
:1010EB00181780031218239000E6E004F0E0C39475
:1010FB000240B590014FE004F0C394804002E4F04D
:10110B0022787FE4F6D8FD75814C0211530216EA62
:10111B00E493A3F8E493A34003F68001F208DFF411
:10112B008029E493A3F85407240CC8C333C4540F89
:10113B004420C8834004F456800146F6DFE4800B5C
:10114B000102040810204080900EA0E47E01936001
:10115B00BCA3FF543F30E509541FFEE493A3600189
:10116B000ECF54C025E060A840B8E493A3FAE493F3
:10117B00A3F8E493A3C8C582C8CAC583CAF0A3C8A1
:10118B00C582C8CAC583CADFE9DEE780BE1217B9BC
:10119B00121559E490007DF090007DE0FFC394029E
:1011AB00505FEF75F006A4242CF582E43401F5832F
:1011BB00E4F0EF75F006A4242DF582E43401F583F9
:1011CB00E4F0EF75F006A4242EF582E43401F583E8
:1011DB007401F0EF75F006A42430F582E43401F5C8
:1011EB0083E4F0A3F0EF75F006A4242FF582E4342A
:1011FB0001F583E4F0FD12186C90007DE004F080A3
:10120B009722E49000BBF0A3F09000BBE0FEA3E0BC
:10121B00FFC39402EE64809480505AEF75F00CA4D7
:10122B002429F8120280EA494B603E9000BBA3E0F0
:10123B00CBEFCB75F00CA42421F8120213EC4D4E1E
:10124B004F6026EB75F00CA42421F8120213EF2447
:10125B00FFFFEE34FFFEED34FFFDEC34FFFCEB75CE
:10126B00F00CA42421F81202379000BBE475F001B6
:10127B001200B98094229000BCEFF075F00AA42400
:10128B0018F582E43401F583E014600F1460111437
:10129B006025240370539000BC80479000BC802EC7
:1012AB009000BCE0FF75F00AA4241AF582E4340127
:1012BB00F583E0FD0215F59000BCE075F00AA4245F
:1012CB0021F582E43401F583E09000BC6014E0FF6B
:1012DB0075F00AA42419F582E43401F583E0FD02CC
:1012EB0015C3E0FFE4FD12179F2230006D9000EA5A
:1012FB00E475F0011200B9FEC3E5F09401EE940021
:10130B004058E49000EAF0A3F09000E9E0601A90F6
:10131B0000E8E0948C9000E7E0940050028029E410
:10132B009000E9F09000E7800FD39000E8E094780C
:10133B009000E7E09400400774FF75F0FE800D907D
:10134B0000E97401F09000E7E475F0021200B99027
:10135B0000E7E0FEA3E0FF1213C822EFC394025094
:10136B005BED946440027D64EF75F00AA42418F5DC
:10137B0082E43401F583E0B40112EF75F00AA42482
:10138B0019F582E43401F583E06D6030EF75F00AF6
:10139B00A42418F582E43401F5837401F0CEEDCE6C
:1013AB00EF75F00AA42419F582E43401F583EEF00D
:1013BB001212817BFF7A1A79F112189122EF24888D
:1013CB00C3139000BBF0E025E024ECF582E434007D
:1013DB00F583E0FFA3E09000BCCFF0A3EFF090000B
:1013EB00BBE025E02402F582E43401F583E0FFA3A2
:1013FB00E09000BECFF0A3EFF09000BEE090FEDBDC
:10140B00F09000BEE0A3E090FEDCF09000BCE0901A
:10141B00FED2F09000BCE0A3E090FED3F022EFC32D
:10142B009402503BEF14602C047034ED6013D29295
:10143B00D293D294D295D296D297D2CCD291D2B11A
:10144B0022C292C293C294C295C296C297C2CCC218
:10145B0091C2B122CFEDCFEF6003D29022C2902286
:10146B0043B20853B1F743BA8090FEB2E0543F4405
:10147B00C0F090FEB1E04480F090FED0E4F0A3F019
:10148B0090FECB7468F090FECD7440F090FEDD744E
:10149B0080F090FEC0F07F787E000213C8C0E0C0E1
:1014AB00F0C083C082C0D075D00812182F900141B4
:1014BB00E475F0011200B9FEC3E5F09464EE9400FC
:1014CB00400C900141E4F0A3F090014004F0D0D027
:1014DB00D082D083D0F0D0E032E4900090F0A3F033
:1014EB00A3F0121874E4900090F012172A90009158
:1014FB00EE8FF01200B9900090E004F0E0C3940876
:10150B0040E87803900091E0FEA3E0CEC313CE1326
:10151B00D8F9FF22C3900157E094E4900156E09470
:10152B000C50037F0022D3900157E0946890015632
:10153B00E0941040037F6422900157E0241CFF903D
:10154B000156E034F3FE7C007D0912006422E49026
:10155B00007EF090007EE0FFC394025027EF25E061
:10156B00244BF582E43401F583E4F0EF25E0244CC1
:10157B00F582E43401F583E4F012182390007EE049
:10158B0004F080CF22121851D3EF94F0EE940A405E
:10159B000D7BFF7A1979C71218917F0380161218E9
:1015AB00519000BEEEF0A3EFF07BFF7A1979D812C1
:1015BB0018917F0B1202FC22EFC39402502BED9477
:1015CB006440027D64CEEDCEEF75F006A4242DF5BC
:1015DB0082E43401F583EEF0EF75F006A4242CF5CC
:1015EB0082E43401F5837401F022EFC39402502797
:1015FB00ED6024CEEDCEEF75F006A4242EF582E43B
:10160B003401F583EEF0EF75F006A4242CF582E49B
:10161B003401F5837402F022121851C3EF9404EED7
:10162B00941040197F0A1202FC1218519000BEEE62
:10163B00F0A3EFF07BFF7A1A792E0218917D0CE460
:10164B00FF120C9722EFC394025024EF75F00AA4FB
:10165B002418F582E43401F583E06013EF75F00A8A
:10166B00A42418F582E43401F583E4F012128122EC
:10167B009000E7E4F0A37478F09000E97401F0E4D3
:10168B00A3F0A3F0D20090FEC0E04401F07BFF7A00
:10169B001B792C021891438E805389F0758ACD7576
:1016AB008CD4C28DD28CD2A9438E4053890F758BAB
:1016BB00AE758DFBC28FD28ED2AB22C3EE648094FB
:1016CB0080401BEF9402EE6480948050117B007A73
:1016DB00007900EF75F00CA42429F812028922C2BC
:1016EB00AF12000E1216A112178412146BD2AF1286
:1016FB000A59900140E060F7E4F0120BDC80F090A7
:10170B00FEDBE4F0A3F090FEC704F090FEC0E054C3
:10171B00FEF0C2B3C2007BFF7A1B793A02189143E9
:10172B00BC400000E5BC30E5FB53BCDFAFBDEF7543
:10173B00F004A4FFAEF0E5BE5403FDEF4DFF22EF26
:10174B00C394025018ED948040027D80CEEDCEEF15
:10175B0025E0244BF582E43401F583EEF022C0E062
:10176B00C0F0C083C082C0D075D010121078D0D01A
:10177B00D082D083D0F0D0E032120FDF12180912D2
:10178B0017FA121863E4FF1216507F01121650E479
:10179B00FF0202FCEFC394025013CEEDCEEF75F0B7
:1017AB0006A4242CF582E43401F583EEF022759225
:1017BB00FFE4F591F59043B20253B1FDC2B143CAB8
:1017CB001053C9EFC2CC22438E805389F0758A9A8D
:1017DB00758CA9C28DD28C308DFDC28CC28D22121C
:1017EB001897EF60047F0780027F051202FC227EB0
:1017FB00007F187D007B007A0079210202D0E490F3
:10180B000146F0A3F0A3F0A3F0A3F022EFC39402E0
:10181B0050057D0112142922EFC394025005E4FDFB
:10182B00121429221212F512120D120F41020989FC
:10183B00D2B77BFF7A1B7947021891C2B77BFF7A2D
:10184B001B7951021891900156E0FEA3E0FF22E4B0
:10185B00F5DE75BC800217D243B28053B17FC2B79D
:10186B0022CEEDCECDCD02174AEF540F4480F5BCFE
:10187B002253B2EF43B1102243B21053B1EF2253B4
:10188B00B2FB43B104229000BB02029BA2B4E4332F
:10189B00FF22EF24FF92B422A2B2E433FF227F0493
:1018AB000202FC7F010202FC7F050202FC7F0702A1
:1018BB0002FC7F090202FC7F080202FC010101010C
:1018CB0001010101010101020202020202030303F1
:1018DB0003030404040505050606060707070808A5
:1018EB0009090A0A0B0B0C0D0D0E0E0F101111121C
:1018FB001313141516171718191A1B1C1D1E1F204E
:10190B0021222324252627292A2B2C2D2F30313237
:10191B0034353638393B3C3E3F4042444547484AD4
:10192B004B4D4F5052545657595B5D5F6162646625
:10193B00686A6C6E70727476797B7D7F7F7D7B7944
:10194B00767472706E6C6A68666462615F5D5B5917
:10195B0057565452504F4D4B4A4847454442403FCF
:10196B003E3C3B39383635343231302F2D2C2B2A37
:10197B002927262524232221201F1E1D1C1B1A1953
:10198B001817171615141313121111100F0E0E0D25
:10199B000D0C0B0B0A0A09090808070707060606B0
:1019AB0005050504040403030303030202020202F8
:1019BB0002010101010101010101010166736D20A9
:1019CB004F46463A206D76206F6B0D0A0066736D9D
:1019DB00204F46463A206D76206C6F772025750D8B
:1019EB000A0066736D20656E746572202562750D35
:1019FB000A0066736D2065786974202562750D0A7F
:101A0B000066736D5F6C6F6F7020776F726B205415
:101A1B004F5543485F4556545F50524553535F32C1
:101A2B00530A0066736D5F6C6F6F7020776F726B0C
:101A3B00204348415247455F494E49542C20656E1F
:101A4B00746572204348415247455F46554C4C20C4
:101A5B0025750A0068616C2062675F7261772030C0
:101A6B00210A0068616C5F626174746572795F74DE
:101A7B0061736B206E65775F6D76202575006861ED
:101A8B006C5F626174746572795F7461736B206EE5
:101A9B0065775F6D7620257520636E7420256275E2
:101AAB0000746F7563682073657276636520544F9D
:101ABB005543485F4556545F50524553535F35303D
:101ACB00300D0A00746F75636820736572766365F9
:101ADB0020544F5543485F4556545F50524553531E
:101AEB005F32530D0A006C65645F736D5F636F6EDD
:101AFB0073740A006C65645F736D5F627265617409
:101B0B0068652063682025627520646976202562EC
:101B1B00750A006C65645F736D5F626C696E6B0A4E
:101B2B000068616C5F75735F73746172740A00682F
:101B3B00616C5F75735F73746F700A00706F77659C
:101B4B00725F6F6E0A00706F7765725F6F66660A01
:011B5B000089
:00000001FF
