:1000000002117E90014AE0FFE4F022021557121817
:0A001000DC53B2BF43B1400218FEFA
:10001B000217EBBB010689828A83E0225002E7229A
:10002B00BBFE02E32289828A83E49322BB010CE5A7
:10003B008229F582E5833AF583E0225006E9258291
:10004B00F8E622BBFE06E92582F8E222E58229F5D5
:10005B0082E5833AF583E49322BC000BBE0029EFC3
:10006B008DF084FFADF022E4CCF875F008EF2FFF94
:10007B00EE33FEEC33FCEE9DEC984005FCEE9DFE62
:10008B000FD5F0E9E4CEFD22EDF8F5F0EE8420D2A9
:10009B001CFEADF075F008EF2FFFED33FD40079818
:1000AB005006D5F0F222C398FD0FD5F0EA22C5F029
:1000BB00F8A3E028F0C5F0F8E582158270021583ED
:1000CB00E038F022E88FF0A4CC8BF0A42CFCE98E66
:1000DB00F0A42CFC8AF0EDA42CFCEA8EF0A4CDA8A5
:1000EB00F08BF0A42DCC3825F0FDE98FF0A42CCDAE
:1000FB0035F0FCEB8EF0A4FEA9F0EB8FF0A4CFC58E
:10010B00F02ECD39FEE43CFCEAA42DCE35F0FDE417
:10011B003CFC2275F008758200EF2FFFEE33FECD0D
:10012B0033CDCC33CCC58233C5829BED9AEC99E5AC
:10013B008298400CF582EE9BFEED9AFDEC99FC0F3C
:10014B00D5F0D6E4CEFBE4CDFAE4CCF9A88222B804
:10015B0000C1B90059BA002DEC8BF084CFCECDFC89
:10016B00E5F0CBF97818EF2FFFEE33FEED33FDEC16
:10017B0033FCEB33FB10D703994004EB99FB0FD8FF
:10018B00E5E4F9FA227818EF2FFFEE33FEED33FD9D
:10019B00EC33FCC933C910D7059BE99A4007EC9B9C
:1001AB00FCE99AF90FD8E0E4C9FAE4CCFB2275F02C
:1001BB0010EF2FFFEE33FEED33FDCC33CCC833C83D
:1001CB0010D7079BEC9AE899400AED9BFDEC9AFC43
:1001DB00E899F80FD5F0DAE4CDFBE4CCFAE4C8F9F2
:1001EB0022EB9FF5F0EA9E42F0E99D42F0EC648031
:1001FB00C864809845F022EB9FF5F0EA9E42F0E947
:10020B009D42F0E89C45F022E6FC08E6FD08E6FE80
:10021B0008E6FF22E0FCA3E0FDA3E0FEA3E0FF2243
:10022B00E0F8A3E0F9A3E0FAA3E0FB22ECF608ED7B
:10023B00F608EEF608EFF622ECF0A3EDF0A3EEF0E5
:10024B00A3EFF022A8828583F0D083D082120266BE
:10025B00120266120266120266E473E493A3C5836C
:10026B00C5F0C583C8C582C8F0A3C583C5F0C583D7
:10027B00C8C582C822E6FB08E6FA08E6F922EBF6C7
:10028B0008EAF608E9F622E0FBA3E0FAA3E0F9227C
:10029B00EBF0A3EAF0A3E9F022D083D082F8E49349
:1002AB007012740193700DA3A393F8740193F582EC
:1002BB008883E4737402936860EFA3A3A380DF8A3F
:1002CB00838982E473EF4E6012EF60010EEDBB0188
:1002DB000B89828A83F0A3DFFCDEFA2289F05007B8
:1002EB00F709DFFCA9F022BBFEFCF309DFFCA9F048
:1002FB002290007FEFF07BFF7A1A79749000BEF0AA
:10030B00121913900150E0FF12049D90007FE0FF43
:10031B00900150F0EF1202A4034E00035A02036245
:10032B000303870403A20503BC0603E20703FE08CD
:10033B0004190904360A04540B04600C04800D00E4
:10034B0000049C1218BD7BFF7A1979350204077BD8
:10035B00FF7A16793F806D1216FD7D0C7F01120D11
:10036B00097BFF7A197930E4900087F07F207EBFFC
:10037B007D02FC120E6E9001510204977BFF7A19DD
:10038B00792BE4900087F07F207EBF7D02FC120E5C
:10039B006E9001530204977BFF7A19793AE490002F
:1003AB0087F07FE87E03FDFC120E6E900153020472
:1003BB0097E4FF1216D27F011216D21218C87BFFD8
:1003CB007A197935E4900087F07F0AFEFDFC120E56
:1003DB006E9001530204971218C87BFF7A18796C40
:1003EB00E4900087F07F64FEFDFC120E6E900153CB
:1003FB000204971219057BFF7A197944E490008760
:10040B00F07F01FEFDFC120E6E900153807E7F018A
:10041B0012191F7BFF7A197944E4900087F07F96BD
:10042B00FEFDFC120E6E9001538061E4FF12191F4A
:10043B007BFF7A197949E4900087F07F3A7E07FDBC
:10044B00FC120E6E90015380437F0112191F7D64C5
:10045B00E4FF0213D87D03E4FF120D097BFF7A1929
:10046B00793AE4900087F07FB87E0BFDFC120E6E9C
:10047B0090015380177BFF7A19793AE4900087F04B
:10048B007FB87E0BFDFC120E6E900153EEF0A3EFC6
:10049B00F022900080EFF07BFF7A1A79849000BEF7
:1004AB00F0121913900080E01202A404DE0004EE97
:1004BB000204FE03052404054C05056A060588079E
:1004CB0005A50805BF0905D90A05F30B05F80C00AE
:1004DB00000618C3900153E0648094805003020619
:1004EB0018804EC3900153E0648094805003020641
:1004FB0018803E12178C7F011216D2C3900151E067
:10050B00648094805003020618E0FEA3E0FF1217EC
:10051B004874FF9001510206157F011216D2E4FFB9
:10052B001216D2C3900153E06480948050030206EC
:10053B0018E0FEA3E0FF12174874FF900153020668
:10054B0015C3900153E0648094805003020618E0B9
:10055B00FEA3E0FF12174874FF900153020615C368
:10056B00900153E0648094805003020618E0FEA3D0
:10057B00E0FF12174874FF900153020615C3900158
:10058B0053E0648094805003020618E0FEA3E0FF62
:10059B0012174874FF9001538070C3900153E064AD
:1005AB008094804068E0FEA3E0FF12174874FF9030
:1005BB0001538056C3900153E064809480404EE019
:1005CB00FEA3E0FF12174874FF900153803CC390C9
:1005DB000153E0648094804034E0FEA3E0FF1217E7
:1005EB004874FF9001538022E4FF0216D2E4FF12FD
:1005FB0016D2C3900153E0648094804010E0FEA3B8
:10060B00E0FF12174874FF900153F0A3F022900102
:10061B005AEDF012001E24FD607B24FE70030207CE
:10062B000D240460030207799000011200371202B7
:10063B00A4065800066101066A02067303067C04D1
:10064B00068505068E060697070000077990015A66
:10065B00E024FF92902290015AE024FF9291229085
:10066B00015AE024FF92922290015AE024FF9293C8
:10067B002290015AE024FF92942290015AE024FF29
:10068B0092952290015AE024FF92962290015AE013
:10069B0024FF9297229000011200371202A406C584
:1006AB000006CE0106D70206E00306E90406F205B2
:1006BB0006FB060704070000077990015AE024FFA8
:1006CB0092B02290015AE024FF92B12290015AE09D
:1006DB0024FF92B22290015AE024FF92B3229001A0
:1006EB005AE024FF92B42290015AE024FF92B522E3
:1006FB0090015AE024FF92B62290015AE024FF9217
:10070B00B7229000011200371202A4073200073BF8
:10071B0001074402074D03075604075F05076806E8
:10072B000771070000077990015AE024FF92C82255
:10073B0090015AE024FF92C92290015AE024FF92C3
:10074B00CA2290015AE024FF92CB2290015AE02456
:10075B00FF92CC2290015AE024FF92CD2290015AB5
:10076B00E024FF92CE2290015AE024FF92CF2290F8
:10077B000139EDF0C9EFC9E9C3940240030208CC7B
:10078B00EB4A70030208CC90013CE0FCA3E0FD4C6B
:10079B0070030208CC900139E0946440037464F058
:1007AB00CEEACECFEBCFEEC313FEEF13FF90013E9D
:1007BB00EEF0A3EFF0ECC313FEED13FFE975F00AB7
:1007CB00A42418F582E43401F583E064037058E93E
:1007DB0075F00AA42419F582E43401F583E0FD9049
:1007EB000139E0FCED6C703FE975F00AA4241BF5B0
:1007FB0082E43401F583E0FCA3E0FD90013EE0FAD6
:10080B00A3E0FBED6B7002EC6A701CE975F00AA4B7
:10081B00241DF582E43401F583E0FCA3E06F700244
:10082B00EC6E70030208CCE975F00AA42418F5826B
:10083B00E43401F5837403F0900139E0FDE975F0C0
:10084B000AA42419F582E43401F583EDF090013EFE
:10085B00E0FCA3E0FDE975F00AA4241BF582E43467
:10086B0001F583ECF0A3EDF0E975F00AA4241DF576
:10087B0082E43401F583EEF0A3EFF0E975F00AA4FE
:10088B00241BF582E43401F583E0FEA3E0FFE97558
:10089B00F00AA4241FF582E43401F583EEF0A3EFF4
:1008AB00F0E975F00AA42421F582E43401F5837490
:1008BB0001F0CFE9CF1212F37BFF7A1B79A5121946
:1008CB001322E49000BCF09000BCE075F006A42469
:1008DB002CF582E43401F583E014601214603F249C
:1008EB000260030209C29000BCE0FFE4802C900080
:1008FB00BCE075F006A4242DF582E43401F583E009
:10090B0075F080A4FFAEF07C007D64120064900053
:10091B00BDEFF09000BCE0FFA3E0FD0209BF90002B
:10092B00BCE075F006A4242EF582E43401F583E0D7
:10093B00FF9000BCE075F006A4242FF582E434018F
:10094B00F583E004F0C39F40459000BCE075F006D2
:10095B00A4242FF582E43401F583E4F09000BCE08D
:10096B0075F006A42430F582E43401F583E475F0C8
:10097B00011200B9C3940140159000BCE075F0065C
:10098B00A42430F582E43401F583E4F0A3F0900065
:10099B00BCE075F006A42430F582E43401F583E065
:1009AB00FEA3E0244EF58274193EF583E493FD908B
:1009BB0000BCE0FF1218EE9000BCE004F0E0C39422
:1009CB000250030208D222120DBD12000390007CCC
:1009DB00EFF0900150E01202A40A03010A1B020A75
:1009EB0029030A69040A96070AA0090AA20A0AA59A
:1009FB000B0AB50C00000AC0121919EF600280191E
:100A0B0090007CE064026003020AC07F02020ABD10
:100A1B00121919EF7003020AC07F07020ABD1219DF
:100A2B0019EF60057F06020ABD90007CE0B403025B
:100A3B00803D1218D390007DEEF0A3EFF0C39454D9
:100A4B00EE940B50047D038011D390007EE094F064
:100A5B0090007DE0940A405D7D0C7F01802A121985
:100A6B0019EF60047F06804A90007CE0B4030E7F90
:100A7B00051202FC7BFF7A1A79930219137D017F11
:100A8B0001120D097D01E4FF020D09121919EF7016
:100A9B00247F06801D800002151A1218D3C3EF9411
:100AAB00A0EE940F500F7F088008121919EF600504
:100ABB007F071202FC22E49000BBF09000BBE075B4
:100ACB00F00AA42418F582E43401F583E064036092
:100ADB0003020B7F9000BBE075F00AA4241FF58284
:100AEB00E43401F58374FFF5F01200B945F06003AF
:100AFB00020B7F9000BBE075F00AA42421F582E481
:100B0B003401F583E07F0070027F019000BBE0753C
:100B1B00F00AA42421F582E43401F583EFF0900070
:100B2B00BBE075F00AA42421F582E43401F583E0DF
:100B3B009000BB600EE075F00AA4241BF582E43430
:100B4B0001800CE075F00AA4241DF582E43401F554
:100B5B0083E0FEA3E0FF9000BBE075F00AA4241F26
:100B6B00F582E43401F583EEF0A3EFF09000BBE0E7
:100B7B00FF1212F39000BBE004F0E0C394025003A9
:100B8B00020AC60208CDE4900080F0A3F090008228
:100B9B00F0A3F090008412024F0000000090008838
:100BAB0012024F0000000090008C12024F00000058
:100BBB00007F0F121593900080EEF0A3EFF09000E2
:100BCB0080E07002A3E0700D7BFF7A1A79E61219B0
:100BDB0013E4FEFF227F0E121593900082EEF0A31A
:100BEB00EFF0900080E0FEA3E0FFCBEFCBCAEECAA4
:100BFB00E4F9F87F5A7E937D12FC12015A9000841F
:100C0B00120243900082E0FEA3E0FFE4FCFD9000A3
:100C1B008412022B1200CFE47BFF7A03F9F8120146
:100C2B005A900088120243E47F02FEFDFC9000887C
:100C3B0012022B1200CF90008C12024390008C12E8
:100C4B00021F22120B9190007CEEF0A3EFF0C390E9
:100C5B000157E09F900156E09E5013E0FEA3E0FF8A
:100C6B00C390007DE09FFF90007CE09E801490007D
:100C7B007CE0FEA3E0FFC3900157E09FFF9001567D
:100C8B00E09E90007EF0A3EFF0D390007FE09432D3
:100C9B0090007EE09400502590007CE0FEA3E0FFE6
:100CAB00900156EEF0A3EFF0E4900155F07BFF7A44
:100CBB001A79F59000BEEEF0A3EFF0803D90015550
:100CCB00E004F0E0C39403401490007CE0FFA3E049
:100CDB00900156CFF0A3EFF0E4900155F07BFF7A33
:100CEB001B791090007CE0FFA3E09000BECFF0A337
:100CFB00EFF0900155E09000C0F012191322900014
:100D0B0081EDF0900080EFF0C394024003020DBC24
:100D1B00A3E0FF7003020DBC900080E0FE75F00AAB
:100D2B00A42418F582E43401F583E0B40212EE75C5
:100D3B00F00AA4241AF582E43401F583E06F6071A4
:100D4B00900080E0FF75F00AA42418F582E43401CA
:100D5B00F5837402F0900081E0FEEF75F00AA42495
:100D6B001AF582E43401F583EEF0900080E0FF7514
:100D7B00F00AA42419F582E43401F583E07011EF35
:100D8B0075F00AA42419F582E43401F5837464F038
:100D9B00900080E0FF1212F37BFF7A1B79869000A4
:100DAB0080E09000BEF0900081E09000BFF012193F
:100DBB001322E490007FF0A3F090007FE0FEA3E00D
:100DCB00FFC39402EE648094804003020E6DEF75B6
:100DDB00F00CA42429F8120280EA494B60779000AA
:100DEB007FA3E075F00CA42421F8120213E4FBFAA4
:100DFB00F9F8C3120202705D90007FA3E0FF75F05B
:100E0B000CA42429F8120280A312029BEF75F00C9C
:100E1B00A4242CF8E6602090007FA3E0FFCBEFCB5F
:100E2B0075F00CA42425F8120213EB75F00CA42416
:100E3B0021F812023780157B007A00790090007F31
:100E4B00A3E075F00CA42429F812028990008112FA
:100E5B0002921202CA90007FE475F0011200B902EF
:100E6B000DC42290008012024390008412029BE476
:100E7B00900088F0A3F0900088E0FEA3E0FFC394FD
:100E8B0002EE64809480507AEF75F00CA42429F85C
:100E9B00120280CEEACECFE9CFEF4E705890008091
:100EAB0012021F900088A3E0FB75F00CA42421F81C
:100EBB0012023790008012021FEB75F00CA4242550
:100ECB00F8120237900084120292900088E0FEA381
:100EDB00E0FFCDEFCD75F00CA42429F81202899018
:100EEB000087E07C0060027C01ED75F00CA4242CE3
:100EFB00F8C6ECC622900088E475F0011200B90226
:100F0B000E817EFF7FFF22410146004101470042D7
:100F1B000148000041014A0041014F0041015500C9
:100F2B0042015600001239010101020103010401C3
:100F3B00050106010703010504024B0100420141B3
:100F4B0000004101400041014300420144000041C7
:100F5B00015800410159004200E700784100E901C6
:100F6B004200EA0000C1005600EC005B005900583B
:100F7B00005600550054005200510050004F004ED7
:100F8B00560102002500220020001E001B00190044
:100F9B0017001500130012001041015000420151BF
:100FAB00FFFF420153FFFF00121925EF6022900152
:100FBB0047E0C394325003E004F0900147E0643201
:100FCB00702A900146E0702404F090014AF0801CD6
:100FDB00900147E0600214F0900147E0700E900121
:100FEB0046E06008E4F0900148F0A3F0900146E081
:100FFB006053900148E0FEA3E0FFE4FCFD7B607AC8
:10100B00EAF9F8D31201EC400A900148E475F001BB
:10101B001200B9900148E0B40112A3E0B4F40DA39F
:10102B007402F07BFF7A1B7933121913900148E09D
:10103B00B40712A3E0B4D00DA37403F07BFF7A1BAB
:10104B0079561219132212120AE490007CF09000C8
:10105B007CE0FFC3940240030210E9EF75F00AA491
:10106B002418F582E43401F583E4F0EF75F00AA45B
:10107B002419F582E43401F583E4F0EF75F00AA44A
:10108B00241AF582E43401F5837401F0EF75F00A4C
:10109B00A4241BF582E43401F583E4F0A3F0EF758F
:1010AB00F00AA4241DF582E43401F583E4F0A3F0E7
:1010BB00EF75F00AA4241FF582E43401F583E4F004
:1010CB00A3F0EF75F00AA42421F582E43401F58333
:1010DB00E4F01212F390007CE004F002105922901D
:1010EB00014FE070309000E6F09000E6E025E02440
:1010FB004BF582E43401F583E0FF9000E6E025E058
:10110B00244CF582E43401F583EFF09000E6E00423
:10111B00F0E0B402D4E49000E6F09000E6E025E0C5
:10112B00244CF582E43401F583E070079000E6E08F
:10113B00FF80239000E6E025E0244CF582E43401A7
:10114B00F583E0FF90014FE0D39F9000E6E0FF5066
:10115B000512189980031218A59000E6E004F0E040
:10116B00C3940240B590014FE004F0C39480400259
:10117B00E4F022787FE4F6D8FD75814C0211C502AC
:10118B00176CE493A3F8E493A34003F68001F208F1
:10119B00DFF48029E493A3F85407240CC8C333C4A9
:1011AB00540F4420C8834004F456800146F6DFE414
:1011BB00800B0102040810204080900F12E47E0186
:1011CB009360BCA3FF543F30E509541FFEE493A387
:1011DB0060010ECF54C025E060A840B8E493A3FA99
:1011EB00E493A3F8E493A3C8C582C8CAC583CAF025
:1011FB00A3C8C582C8CAC583CADFE9DEE780BE12B1
:10120B00183B121608E490007DF090007DE0FFC3C0
:10121B009402505FEF75F006A4242CF582E43401A0
:10122B00F583E4F0EF75F006A4242DF582E4340188
:10123B00F583E4F0EF75F006A4242EF582E4340177
:10124B00F5837401F0EF75F006A42430F582E434D5
:10125B0001F583E4F0A3F0EF75F006A4242FF582DB
:10126B00E43401F583E4F0FD1218EE90007DE00408
:10127B00F0809722E49000BBF0A3F09000BBE0FE5F
:10128B00A3E0FFC39402EE64809480505AEF75F094
:10129B000CA42429F8120280EA494B603E9000BB53
:1012AB00A3E0CBEFCB75F00CA42421F8120213ECC6
:1012BB004D4E4F6026EB75F00CA42421F81202134F
:1012CB00EF24FFFFEE34FFFEED34FFFDEC34FFFCAB
:1012DB00EB75F00CA42421F81202379000BBE475D7
:1012EB00F0011200B98094229000BCEFF075F00A67
:1012FB00A42418F582E43401F583E014600F146024
:10130B0011146025240370539000BC80479000BCDF
:10131B00802E9000BCE0FF75F00AA4241AF582E43D
:10132B003401F583E0FD0216A49000BCE075F00AD1
:10133B00A42421F582E43401F583E09000BC601411
:10134B00E0FF75F00AA42419F582E43401F583E07B
:10135B00FD021672E0FFE4FD1218212230006D90A1
:10136B0000EAE475F0011200B9FEC3E5F09401EE5A
:10137B0094004058E49000EAF0A3F09000E9E0609C
:10138B001A9000E8E0948C9000E7E0940050028003
:10139B0029E49000E9F09000E7800FD39000E8E09B
:1013AB0094789000E7E09400400774FF75F0FE809E
:1013BB000D9000E97401F09000E7E475F002120063
:1013CB00B99000E7E0FEA3E0FF12143A22EFC394BA
:1013DB0002505BED946440027D64EF75F00AA42427
:1013EB0018F582E43401F583E0B40112EF75F00ACD
:1013FB00A42419F582E43401F583E06D6030EF75B8
:10140B00F00AA42418F582E43401F5837401F0CEBC
:10141B00EDCEEF75F00AA42419F582E43401F583BF
:10142B00EEF01212F37BFF7A1B797812191322EF6D
:10143B002488C3139000BBF0E025E024ECF582E494
:10144B003400F583E0FFA3E09000BCCFF0A3EFF0F6
:10145B009000BBE025E02402F582E43401F583E043
:10146B00FFA3E09000BECFF0A3EFF09000BEE090A2
:10147B00FEDBF09000BEE0A3E090FEDCF09000BC41
:10148B00E090FED2F09000BCE0A3E090FED3F022FF
:10149B00EFC39402503BEF14602C047034ED6013D7
:1014AB00D292D293D294D295D296D297D2CCD291C9
:1014BB00D2B122C292C293C294C295C296C297C2B3
:1014CB00CCC291C2B122CFEDCFEF6003D29022C23A
:1014DB00902243B20853B1F743BA8090FEB2E05466
:1014EB003F44C0F090FEB1E04480F090FED0E4F0B9
:1014FB00A3F090FECB7468F090FECD7440F090FE9C
:10150B00DD7480F090FEC0F07F787E0002143A12FA
:10151B0018D3C3EF9404EE941040197F0B1202FC06
:10152B001218D39000BEEEF0A3EFF07BFF7A1A797E
:10153B00B50219131218D3C3EF94ACEE940D5004EB
:10154B007D0380027D0CE4FF120D0922C0E0C0F088
:10155B00C083C082C0D075D0081218B1900141E48D
:10156B0075F0011200B9FEC3E5F09464EE940040EF
:10157B000C900141E4F0A3F090014004F0D0D0D0E6
:10158B0082D083D0F0D0E032E4900090F0A3F0A3AF
:10159B00F01218F6E4900090F01217AC900091EE58
:1015AB008FF01200B9900090E004F0E0C394084073
:1015BB00E87803900091E0FEA3E0CEC313CE13D8DE
:1015CB00F9FF22C3900157E094E4900156E0940C8C
:1015DB0050037F0022D3900157E09468900156E0AE
:1015EB00941040037F6422900157E0241CFF90016C
:1015FB0056E034F3FE7C007D0912006422E4900077
:10160B007EF090007EE0FFC394025027EF25E0248C
:10161B004BF582E43401F583E4F0EF25E0244CF53F
:10162B0082E43401F583E4F01218A590007EE00407
:10163B00F080CF221218D3D3EF94F0EE940A400D22
:10164B007BFF7A1A794E1219137F0380161218D367
:10165B009000BEEEF0A3EFF07BFF7A1A795F1219C0
:10166B00137F0C1202FC22EFC39402502BED9464F7
:10167B0040027D64CEEDCEEF75F006A4242DF582ED
:10168B00E43401F583EEF0EF75F006A4242CF5821B
:10169B00E43401F5837401F022EFC394025027ED7B
:1016AB006024CEEDCEEF75F006A4242EF582E43443
:1016BB0001F583EEF0EF75F006A4242CF582E434EB
:1016CB0001F5837402F022EFC394025024EF75F0FE
:1016DB000AA42418F582E43401F583E06013EF7556
:1016EB00F00AA42418F582E43401F583E4F0121215
:1016FB00F3229000E7E4F0A37478F09000E9740112
:10170B00F0E4A3F0A3F0D20090FEC0E04401F07B24
:10171B00FF7A1B79B3021913438E805389F0758AB4
:10172B00CD758CD4C28DD28CD2A9438E4053890FE8
:10173B00758BAE758DFBC28FD28ED2AB22C3EE648E
:10174B00809480401BEF9402EE6480948050117B58
:10175B00007A007900EF75F00CA42429F8120289A5
:10176B0022C2AF12000E1217231218061214DDD26A
:10177B00AF1209D2900140E060F7E4F0120C4E80FA
:10178B00F090FEDBE4F0A3F090FEC704F090FEC0F7
:10179B00E054FEF0C2B3C2007BFF7A1B79C1021981
:1017AB001343BC400000E5BC30E5FB53BCDFAFBDD1
:1017BB00EF75F004A4FFAEF0E5BE5403FDEF4DFF53
:1017CB0022EFC394025018ED948040027D80CEED41
:1017DB00CEEF25E0244BF582E43401F583EEF022C5
:1017EB00C0E0C0F0C083C082C0D075D0101210EA28
:1017FB00D0D0D082D083D0F0D0E03212105112185A
:10180B008B12187C1218E5E4FF1216D27F01121608
:10181B00D2E4FF0202FCEFC394025013CEEDCEEFE5
:10182B0075F006A4242CF582E43401F583EEF02246
:10183B007592FFE4F591F59043B20253B1FDC2B13D
:10184B0043CA1053C9EFC2CC22438E805389F07523
:10185B008A9A758CA9C28DD28C308DFDC28CC28DAB
:10186B0022121919EF60047F0880027F061202FC16
:10187B00227E007F187D007B007A0079210202D046
:10188B00E4900146F0A3F0A3F0A3F0A3F022EFC382
:10189B00940250057D0112149B22EFC39402500554
:1018AB00E4FD12149B2212136712127F120FB30264
:1018BB000AC1D2B77BFF7A1B79CE021913C2B77B51
:1018CB00FF7A1B79D8021913900156E0FEA3E0FFB3
:1018DB0022E4F5DE75BC8002185443B28053B17F0D
:1018EB00C2B722CEEDCECDCD0217CCEF540F448034
:1018FB00F5BC2253B2EF43B1102243B21053B1EFF8
:10190B002253B2FB43B104229000BB02029BA2B450
:10191B00E433FF22EF24FF92B422A2B2E433FF227E
:10192B007F030202FC7F040202FC7F010202FC7FA8
:10193B00060202FC7F080202FC7F0A0202FC7F09FE
:10194B000202FC010101010101010101010102027D
:10195B000202020203030303030404040505050644
:10196B000606070707080809090A0A0B0B0C0D0DD9
:10197B000E0E0F1011111213131415161717181929
:10198B001A1B1C1D1E1F2021222324252627292A32
:10199B002B2C2D2F30313234353638393B3C3E3FF2
:1019AB004042444547484A4B4D4F50525456575965
:1019BB005B5D5F61626466686A6C6E707274767987
:1019CB007B7D7F7F7D7B79767472706E6C6A6866C7
:1019DB006462615F5D5B5957565452504F4D4B4A91
:1019EB004847454442403F3E3C3B3938363534321C
:1019FB0031302F2D2C2B2A29272625242322212059
:101A0B001F1E1D1C1B1A191817171615141313124A
:101A1B001111100F0E0E0D0D0C0B0B0A0A090908F4
:101A2B000807070706060605050504040403030358
:101A3B000303020202020202010101010101010181
:101A4B0001010166736D204F46463A206D76206F7B
:101A5B006B0D0A0066736D204F46463A206D76205B
:101A6B006C6F772025750D0A0066736D20656E749B
:101A7B006572202562750D0A0066736D20657869A5
:101A8B0074202562750D0A0066736D5F6C6F6F7045
:101A9B0020776F726B20544F5543485F4556545F08
:101AAB0050524553535F32530A0066736D5F6C6F30
:101ABB006F7020776F726B204348415247455F49E7
:101ACB004E49542C20656E74657220434841524731
:101ADB00455F46554C4C2025750A0068616C2062A9
:101AEB00675F7261772030210A0068616C5F626109
:101AFB0074746572795F7461736B206E65775F6D5B
:101B0B00762025750068616C5F626174746572790B
:101B1B005F7461736B206E65775F6D762025752022
:101B2B00636E742025627500746F7563682073652E
:101B3B007276636520544F5543485F4556545F504A
:101B4B00524553535F3530300D0A00746F7563681F
:101B5B002073657276636520544F5543485F455635
:101B6B00545F50524553535F32530D0A006C6564FA
:101B7B005F736D5F636F6E73740A006C65645F7384
:101B8B006D5F62726561746865206368202562759C
:101B9B0020646976202562750A006C65645F736D3D
:101BAB005F626C696E6B0A0068616C5F75735F7363
:101BBB00746172740A0068616C5F75735F73746F24
:101BCB00700A00706F7765725F6F6E0A00706F77C7
:081BDB0065725F6F66660A0087
:00000001FF
