:1000000002106B900134E0FFE4F0220214BE1218DB
:0A0010004353B2BF43B1400218652C
:10001B00021752BB010689828A83E0225002E72233
:10002B00BBFE02E32289828A83E49322BB010CE5A7
:10003B008229F582E5833AF583E0225006E9258291
:10004B00F8E622BBFE06E92582F8E222E58229F5D5
:10005B0082E5833AF583E49322BC000BBE0029EFC3
:10006B008DF084FFADF022E4CCF875F008EF2FFF94
:10007B00EE33FEEC33FCEE9DEC984005FCEE9DFE62
:10008B000FD5F0E9E4CEFD22EDF8F5F0EE8420D2A9
:10009B001CFEADF075F008EF2FFFED33FD40079818
:1000AB005006D5F0F222C398FD0FD5F0EA22C5F029
:1000BB00F8A3E028F0C5F0F8E582158270021583ED
:1000CB00E038F022E88FF0A4CC8BF0A42CFCE98E66
:1000DB00F0A42CFC8AF0EDA42CFCEA8EF0A4CDA8A5
:1000EB00F08BF0A42DCC3825F0FDE98FF0A42CCDAE
:1000FB0035F0FCEB8EF0A4FEA9F0EB8FF0A4CFC58E
:10010B00F02ECD39FEE43CFCEAA42DCE35F0FDE417
:10011B003CFC2275F008758200EF2FFFEE33FECD0D
:10012B0033CDCC33CCC58233C5829BED9AEC99E5AC
:10013B008298400CF582EE9BFEED9AFDEC99FC0F3C
:10014B00D5F0D6E4CEFBE4CDFAE4CCF9A88222B804
:10015B0000C1B90059BA002DEC8BF084CFCECDFC89
:10016B00E5F0CBF97818EF2FFFEE33FEED33FDEC16
:10017B0033FCEB33FB10D703994004EB99FB0FD8FF
:10018B00E5E4F9FA227818EF2FFFEE33FEED33FD9D
:10019B00EC33FCC933C910D7059BE99A4007EC9B9C
:1001AB00FCE99AF90FD8E0E4C9FAE4CCFB2275F02C
:1001BB0010EF2FFFEE33FEED33FDCC33CCC833C83D
:1001CB0010D7079BEC9AE899400AED9BFDEC9AFC43
:1001DB00E899F80FD5F0DAE4CDFBE4CCFAE4C8F9F2
:1001EB0022EB9FF5F0EA9E42F0E99D42F0EC648031
:1001FB00C864809845F022EB9FF5F0EA9E42F0E947
:10020B009D42F0E89C45F022E6FC08E6FD08E6FE80
:10021B0008E6FF22E0FCA3E0FDA3E0FEA3E0FF2243
:10022B00E0F8A3E0F9A3E0FAA3E0FB22ECF608ED7B
:10023B00F608EEF608EFF622ECF0A3EDF0A3EEF0E5
:10024B00A3EFF022A8828583F0D083D082120266BE
:10025B00120266120266120266E473E493A3C5836C
:10026B00C5F0C583C8C582C8F0A3C583C5F0C583D7
:10027B00C8C582C822E6FB08E6FA08E6F922EBF6C7
:10028B0008EAF608E9F622E0FBA3E0FAA3E0F9227C
:10029B00EBF0A3EAF0A3E9F022D083D082F8E49349
:1002AB007012740193700DA3A393F8740193F582EC
:1002BB008883E4737402936860EFA3A3A380DF8A3F
:1002CB00838982E473EF4E6012EF60010EEDBB0188
:1002DB000B89828A83F0A3DFFCDEFA2289F05007B8
:1002EB00F709DFFCA9F022BBFEFCF309DFFCA9F048
:1002FB002290007FEFF07BFF7A1979D69000BEF049
:10030B0012187A90013AE0FF12073390007FE0FF5A
:10031B0090013AF0EF1202A4034B00035702035F64
:10032B0003038404039E0503C40603E00703FB08D1
:10033B0004180904360A04420B04620C0000047E04
:10034B001218247BFF7A1879970203E97BFF7A1541
:10035B0079A680521216647D0C7F01120C977BFFDD
:10036B007A187992E4900087F07F207EBF7D02FCA3
:10037B00120DFC90013B0204797BFF7A18799CE407
:10038B00900087F07FE87E03FDFC120DFC90013D91
:10039B00020479E4FF1216397F0112163912182F55
:1003AB007BFF7A187997E4900087F07F0AFEFDFCBB
:1003BB00120DFC90013D02047912182F7BFF7A1766
:1003CB0079D3E4900087F07F64FEFDFC120DFC9066
:1003DB00013D02047912186C7BFF7A1879A6E49020
:1003EB000087F07F01FEFDFC120DFC90013D807E2D
:1003FB007F011218867BFF7A1879A6E4900087F0AC
:10040B007F96FEFDFC120DFC90013D8061E4FF1216
:10041B0018867BFF7A1879ABE4900087F07F3A7EE1
:10042B0007FDFC120DFC90013D80437F01121886E5
:10043B007D64E4FF02134C7D03E4FF120C977BFFFA
:10044B007A18799CE4900087F07FB87E0BFDFC1244
:10045B000DFC90013D80177BFF7A18799CE490008E
:10046B0087F07FB87E0BFDFC120DFC90013DEEF08A
:10047B00A3EFF022900144EDF012001E24FD607BEF
:10048B0024FE7003020573240460030205DF900051
:10049B00011200371202A404BE0004C70104D002EB
:1004AB0004D90304E20404EB0504F40604FD07007D
:1004BB000005DF900144E024FF929022900144E07C
:1004CB0024FF929122900144E024FF92922290010A
:1004DB0044E024FF929322900144E024FF92942263
:1004EB00900144E024FF929522900144E024FF9276
:1004FB009622900144E024FF929722900001120073
:10050B00371202A4052B00053401053D02054603F5
:10051B00054F04055805056106056A07000005DF50
:10052B00900144E024FF92B022900144E024FF921A
:10053B00B122900144E024FF92B222900144E024C6
:10054B00FF92B322900144E024FF92B42290014425
:10055B00E024FF92B522900144E024FF92B6229052
:10056B000144E024FF92B7229000011200371202DF
:10057B00A405980005A10105AA0205B30305BC0457
:10058B0005C50505CE0605D707000005DF9001441C
:10059B00E024FF92C822900144E024FF92C92290EC
:1005AB000144E024FF92CA22900144E024FF92CB45
:1005BB0022900144E024FF92CC22900144E024FFDE
:1005CB0092CD22900144E024FF92CE22900144E090
:1005DB0024FF92CF22900123EDF0C9EFC9E9C39418
:1005EB00024003020732EB4A7003020732900126E6
:1005FB00E0FCA3E0FD4C7003020732900123E09472
:10060B006440037464F0CEEACECFEBCFEEC313FE9F
:10061B00EF13FF900128EEF0A3EFF0ECC313FEED08
:10062B0013FFE975F00AA42402F582E43401F58383
:10063B00E064037058E975F00AA42403F582E434EE
:10064B0001F583E0FD900123E0FCED6C703FE97553
:10065B00F00AA42405F582E43401F583E0FCA3E061
:10066B00FD900128E0FAA3E0FBED6B7002EC6A70E1
:10067B001CE975F00AA42407F582E43401F583E044
:10068B00FCA3E06F7002EC6E7003020732E975F0A9
:10069B000AA42402F582E43401F5837403F090017B
:1006AB0023E0FDE975F00AA42403F582E43401F597
:1006BB0083EDF0900128E0FCA3E0FDE975F00AA4BE
:1006CB002405F582E43401F583ECF0A3EDF0E97534
:1006DB00F00AA42407F582E43401F583EEF0A3EFCE
:1006EB00F0E975F00AA42405F582E43401F583E002
:1006FB00FEA3E0FFE975F00AA42409F582E43401B6
:10070B00F583EEF0A3EFF0E975F00AA4240BF58264
:10071B00E43401F5837401F0CFE9CF1212687BFF4B
:10072B007A1B790712187A22900080EFF07BFF7A00
:10073B001979E69000BEF012187A900080E0120250
:10074B00A407710007810207910307B70407D505BA
:10075B0007F306081007082A08084409085E0A0868
:10076B00630B00000883C390013DE06480948050CC
:10077B00030208838044C390013DE0648094805061
:10078B000302088380341216F37F01121639C390CB
:10079B00013BE0648094805003020883E0FEA3E0F9
:1007AB00FF1216AF74FF90013B020880C390013D0E
:1007BB00E0648094805003020883E0FEA3E0FF1204
:1007CB0016AF74FF90013D020880C390013DE064B9
:1007DB008094805003020883E0FEA3E0FF1216AF63
:1007EB0074FF90013D020880C390013DE06480944A
:1007FB00805003020883E0FEA3E0FF1216AF74FFE4
:10080B0090013D8070C390013DE06480948040680E
:10081B00E0FEA3E0FF1216AF74FF90013D8056C3BC
:10082B0090013DE064809480404EE0FEA3E0FF1217
:10083B0016AF74FF90013D803CC390013DE0648096
:10084B0094804034E0FEA3E0FF1216AF74FF9001DA
:10085B003D8022E4FF021639E4FF121639C39001E2
:10086B003DE0648094804010E0FEA3E0FF1216AFE1
:10087B0074FF90013DF0A3F022E49000BCF09000D7
:10088B00BCE075F006A42416F582E43401F583E090
:10089B0014601214603F240260030209799000BCBB
:1008AB00E0FFE4802C9000BCE075F006A42417F563
:1008BB0082E43401F583E075F080A4FFAEF07C0098
:1008CB007D641200649000BDEFF09000BCE0FFA3CC
:1008DB00E0FD0209769000BCE075F006A42418F543
:1008EB0082E43401F583E0FF9000BCE075F006A4D0
:1008FB002419F582E43401F583E004F0C39F4045ED
:10090B009000BCE075F006A42419F582E43401F5DF
:10091B0083E4F09000BCE075F006A4241AF582E4A1
:10092B003401F583E475F0011200B9C3940140154D
:10093B009000BCE075F006A4241AF582E43401F5AE
:10094B0083E4F0A3F09000BCE075F006A4241AF544
:10095B0082E43401F583E0FEA3E024B0F582741841
:10096B003EF583E493FD9000BCE0FF121855900018
:10097B00BCE004F0E0C39402500302088922E49027
:10098B0000BBF09000BBE075F00AA42402F582E4F2
:10099B003401F583E064036003020A479000BBE077
:1009AB0075F00AA42409F582E43401F58374FFF58C
:1009BB00F01200B945F06003020A479000BBE075E6
:1009CB00F00AA4240BF582E43401F583E07F007078
:1009DB00027F019000BBE075F00AA4240BF582E4C2
:1009EB003401F583EFF09000BBE075F00AA4240B03
:1009FB00F582E43401F583E09000BB600EE075F006
:100A0B000AA42405F582E43401800CE075F00AA4F5
:100A1B002407F582E43401F583E0FEA3E0FF9000A8
:100A2B00BBE075F00AA42409F582E43401F583EEEA
:100A3B00F0A3EFF09000BBE0FF1212689000BBE058
:100A4B0004F0E0C39402500302098E020884120DD5
:100A5B004B12000390007CEFF090013AE01202A4DD
:100A6B000A87010A9E020AA8030AF4060AFE080B6B
:100A7B0000090B030A0B130B00000B1E121880EF5F
:100A8B006002801590007CE064026003020B1E7F05
:100A9B0002807D121880EF607A7F068073121880B7
:100AAB00EF60047F05806990007CE0B4030E7F0447
:100ABB001202FC7BFF7A1979F502187A12183A9018
:100ACB00007DEEF0A3EFF0C39454EE940B50047D35
:100ADB00038011D390007EE094F090007DE0940AA7
:100AEB0040317D0C7F01020C97121880EF70247F30
:100AFB0005801D800002148112183AC3EF94A0EEFA
:100B0B00940F500F7F078008121880EF60057F0647
:100B1B001202FC22E4900080F0A3F0900082F0A37C
:100B2B00F090008412024F00000000900088120227
:100B3B004F0000000090008C12024F000000007F5D
:100B4B000F1214FA900080EEF0A3EFF0900080E00B
:100B5B007002A3E0700D7BFF7A1A794812187AE4C1
:100B6B00FEFF227F0E1214FA900082EEF0A3EFF03C
:100B7B00900080E0FEA3E0FFCBEFCBCAEECAE4F916
:100B8B00F87F5A7E937D12FC12015A900084120258
:100B9B0043900082E0FEA3E0FFE4FCFD9000841292
:100BAB00022B1200CFE47BFF7A03F9F812015A9063
:100BBB000088120243E47F02FEFDFC9000881202C3
:100BCB002B1200CF90008C12024390008C12021F4C
:100BDB0022120B1F90007CEEF0A3EFF0C3900141AB
:100BEB00E09F900140E09E5013E0FEA3E0FFC39016
:100BFB00007DE09FFF90007CE09E801490007CE0E5
:100C0B00FEA3E0FFC3900141E09FFF900140E09EF7
:100C1B0090007EF0A3EFF0D390007FE09432900031
:100C2B007EE09400502590007CE0FEA3E0FF900155
:100C3B0040EEF0A3EFF0E490013FF07BFF7A1A79DE
:100C4B00579000BEEEF0A3EFF0803D90013FE00423
:100C5B00F0E0C39403401490007CE0FFA3E090010C
:100C6B0040CFF0A3EFF0E490013FF07BFF7A1A79CD
:100C7B007290007CE0FFA3E09000BECFF0A3EFF0FA
:100C8B0090013FE09000C0F012187A22900081EDA5
:100C9B00F0900080EFF0C394024003020D4AA3E0F2
:100CAB00FF7003020D4A900080E0FE75F00AA42449
:100CBB0002F582E43401F583E0B40212EE75F00A1A
:100CCB00A42404F582E43401F583E06F6071900095
:100CDB0080E0FF75F00AA42402F582E43401F58369
:100CEB007402F0900081E0FEEF75F00AA42404F585
:100CFB0082E43401F583EEF0900080E0FF75F00A9A
:100D0B00A42403F582E43401F583E07011EF75F050
:100D1B000AA42403F582E43401F5837464F0900093
:100D2B0080E0FF1212687BFF7A1A79E8900080E06E
:100D3B009000BEF0900081E09000BFF012187A2274
:100D4B00E490007FF0A3F090007FE0FEA3E0FFC3F0
:100D5B009402EE648094804003020DFBEF75F00C5F
:100D6B00A42429F8120280EA494B607790007FA3F4
:100D7B00E075F00CA42421F8120213E4FBFAF9F845
:100D8B00C3120202705D90007FA3E0FF75F00CA40C
:100D9B002429F8120280A312029BEF75F00CA424F5
:100DAB002CF8E6602090007FA3E0FFCBEFCB75F033
:100DBB000CA42425F8120213EB75F00CA42421F8D3
:100DCB0012023780157B007A00790090007FA3E038
:100DDB0075F00CA42429F81202899000811202925A
:100DEB001202CA90007FE475F0011200B9020D5295
:100DFB002290008012024390008412029BE4900028
:100E0B0088F0A3F0900088E0FEA3E0FFC39402EE0D
:100E1B0064809480507AEF75F00CA42429F81202A8
:100E2B0080CEEACECFE9CFEF4E7058900080120201
:100E3B001F900088A3E0FB75F00CA42421F812028C
:100E4B003790008012021FEB75F00CA42425F812CA
:100E5B000237900084120292900088E0FEA3E0FF1C
:100E6B00CDEFCD75F00CA42429F8120289900087E0
:100E7B00E07C0060027C01ED75F00CA4242CF8C61C
:100E8B00ECC622900088E475F0011200B9020E0F37
:100E9B007EFF7FFF2212188CEF6022900131E0C39E
:100EAB0094325003E004F0900131E06432702A90E8
:100EBB000130E0702404F0900134F0801C9001317B
:100ECB00E0600214F0900131E0700E900130E060B0
:100EDB0008E4F0900132F0A3F0900130E060539001
:100EEB000132E0FEA3E0FFE4FCFD7B607AEAF9F857
:100EFB00D31201EC400A900132E475F0011200B9F3
:100F0B00900132E0B40112A3E0B4F40DA37402F02B
:100F1B007BFF7A1A799512187A900132E0B4071296
:100F2B00A3E0B4D00DA37403F07BFF7A1A79B81247
:100F3B00187A2212117FE490007CF090007CE0FF85
:100F4B00C394024003020FD6EF75F00AA42402F5F6
:100F5B0082E43401F583E4F0EF75F00AA42403F581
:100F6B0082E43401F583E4F0EF75F00AA42404F570
:100F7B0082E43401F5837401F0EF75F00AA42405C3
:100F8B00F582E43401F583E4F0A3F0EF75F00AA4E5
:100F9B002407F582E43401F583E4F0A3F0EF75F058
:100FAB000AA42409F582E43401F583E4F0A3F0EFFD
:100FBB0075F00AA4240BF582E43401F583E4F012F6
:100FCB00126890007CE004F0020F4622900139E099
:100FDB0070309000E6F09000E6E025E02435F582D5
:100FEB00E43401F583E0FF9000E6E025E02436F5DC
:100FFB0082E43401F583EFF09000E6E004F0E0B416
:10100B0002D4E49000E6F09000E6E025E02436F50B
:10101B0082E43401F583E070079000E6E0FF802363
:10102B009000E6E025E02436F582E43401F583E018
:10103B00FF900139E0D39F9000E6E0FF50051218B6
:10104B0000800312180C9000E6E004F0E0C3940259
:10105B0040B5900139E004F0C394804002E4F022E3
:10106B00787FE4F6D8FD75814C0210B20216D3E4FA
:10107B0093A3F8E493A34003F68001F208DFF48016
:10108B0029E493A3F85407240CC8C333C4540F4466
:10109B0020C8834004F456800146F6DFE4800B0140
:1010AB00020408102040809010F7E47E019360BC8E
:1010BB00A3FF543F30E509541FFEE493A360010ED8
:1010CB00CF54C025E060A840B8E493A3FAE493A3FF
:1010DB00F8E493A3C8C582C8CAC583CAF0A3C8C520
:1010EB0082C8CAC583CADFE9DEE780BE4101300092
:1010FB00410131004201320000410134004101390C
:10110B000041013F00420140000012390101010280
:10111B000103010401050106010703010504024B4C
:10112B00010042012B000041012A0041012D004228
:10113B00012E000041014200410143004200E70043
:10114B00944100E9014200EA0000C1005600EC00A6
:10115B004900490048004800470047004600460048
:10116B00450045004441013A0042013BFFFF42016B
:10117B003DFFFF001217A212156FE490007DF09057
:10118B00007DE0FFC39402505FEF75F006A42416B8
:10119B00F582E43401F583E4F0EF75F006A424172F
:1011AB00F582E43401F583E4F0EF75F006A424181E
:1011BB00F582E43401F5837401F0EF75F006A42495
:1011CB001AF582E43401F583E4F0A3F0EF75F00631
:1011DB00A42419F582E43401F583E4F0FD121855CB
:1011EB0090007DE004F0809722E49000BBF0A3F028
:1011FB009000BBE0FEA3E0FFC39402EE64809480FA
:10120B00505AEF75F00CA42429F8120280EA494BCE
:10121B00603E9000BBA3E0CBEFCB75F00CA4242178
:10122B00F8120213EC4D4E4F6026EB75F00CA42414
:10123B0021F8120213EF24FFFFEE34FFFEED34FF13
:10124B00FDEC34FFFCEB75F00CA42421F8120237F3
:10125B009000BBE475F0011200B98094229000BCA1
:10126B00EFF075F00AA42402F582E43401F583E073
:10127B0014600F146011146025240370539000BC8C
:10128B0080479000BC802E9000BCE0FF75F00AA454
:10129B002404F582E43401F583E0FD02160B900083
:1012AB00BCE075F00AA4240BF582E43401F583E06D
:1012BB009000BC6014E0FF75F00AA42403F582E4EF
:1012CB003401F583E0FD0215D9E0FFE4FD12178828
:1012DB002230006C9000EAE475F0011200B9FEC3F5
:1012EB00E5F09432EE94004057E49000EAF0A3F05E
:1012FB009000E9E0601A9000E8E0949E9000E7E02F
:10130B00940050028028E49000E9F09000E7800FF1
:10131B00D39000E8E094949000E7E09400400674CA
:10132B00FFF5F0800D9000E97401F09000E7E47593
:10133B00F0011200B99000E7E0FEA3E0FF1213AE3C
:10134B0022EFC39402505BED946440027D64EF7511
:10135B00F00AA42402F582E43401F583E0B401120F
:10136B00EF75F00AA42403F582E43401F583E06DF4
:10137B006030EF75F00AA42402F582E43401F583A2
:10138B007401F0CEEDCEEF75F00AA42403F582E4E0
:10139B003401F583EEF01212687BFF7A1A79DA12B8
:1013AB00187A22EF246C9000BBF0E025E024ECF5DA
:1013BB0082E43400F583E0FFA3E09000BCCFF0A300
:1013CB00EFF09000BCE0C313FFA3E013A3CFF0A397
:1013DB00EFF09000BEE090FEDBF09000BEE0A3E0EB
:1013EB0090FEDCF09000BCE090FED2F09000BCE0F0
:1013FB00A3E090FED3F022EFC39402503BEF1460B6
:10140B002C047034ED6013D292D293D294D295D235
:10141B0096D297D2CCD291D2B122C292C293C2941D
:10142B00C295C296C297C2CCC291C2B122CFEDCFA8
:10143B00EF6003D29022C2902243B20853B1F7431C
:10144B00BA8090FEB2E0543F44C0F090FEB1E0444D
:10145B0080F090FED0E4F0A3F090FECB7468F09097
:10146B00FECD7440F090FEDD7480F090FEC0F07FF6
:10147B00947E000213AE12183AC3EF9404EE94104C
:10148B0040197F0A1202FC12183A9000BEEEF0A32C
:10149B00EFF07BFF7A1A791702187A12183AC3EF1A
:1014AB0094ACEE940D50047D0380027D0CE4FF128E
:1014BB000C9722C0E0C0F0C083C082C0D075D008AA
:1014CB0012181890012BE475F0011200B9FEC3E558
:1014DB00F09464EE9400400C90012BE4F0A3F09098
:1014EB00012A04F0D0D0D082D083D0F0D0E032E407
:1014FB00900090F0A3F0A3F012185DE4900090F030
:10150B00121713900091EE8FF01200B9900090E03B
:10151B0004F0E0C3940840E87803900091E0FEA348
:10152B00E0CEC313CE13D8F9FF22C3900141E09450
:10153B00E4900140E0940C50037F0022D3900141D2
:10154B00E09468900140E0941040037F6422900186
:10155B0041E0241CFF900140E034F3FE7C007D0948
:10156B0012006422E490007EF090007EE0FFC394B2
:10157B00025027EF25E02435F582E43401F583E4AE
:10158B00F0EF25E02436F582E43401F583E4F01224
:10159B00180C90007EE004F080CF2212183AD3EFA3
:1015AB0094F0EE940A400D7BFF7A1979B012187AF9
:1015BB007F03801612183A9000BEEEF0A3EFF07B7B
:1015CB00FF7A1979C112187A7F0B1202FC22EFC332
:1015DB009402502BED946440027D64CEEDCEEF75FA
:1015EB00F006A42417F582E43401F583EEF0EF75D1
:1015FB00F006A42416F582E43401F5837401F0227D
:10160B00EFC394025027ED6024CEEDCEEF75F006BC
:10161B00A42418F582E43401F583EEF0EF75F0069F
:10162B00A42416F582E43401F5837402F022EFC38F
:10163B0094025024EF75F00AA42402F582E43401DD
:10164B00F583E06013EF75F00AA42402F582E4340D
:10165B0001F583E4F0121268229000E7E4F0A37422
:10166B0094F09000E97401F0E4A3F0A3F0D20090A1
:10167B00FEC0E04401F07BFF7A1B791502187A4318
:10168B008E805389F0758ACD758CD4C28DD28CD255
:10169B00A9438E4053890F758BAE758DFBC28FD2CC
:1016AB008ED2AB22C3EE64809480401BEF9402EE8B
:1016BB006480948050117B007A007900EF75F00CF8
:1016CB00A42429F812028922C2AF12000E12168A24
:1016DB0012176D121444D2AF120A5990012AE0600E
:1016EB00F7E4F0120BDC80F090FEDBE4F0A3F0905B
:1016FB00FEC704F090FEC0E054FEF0C2B3C2007B04
:10170B00FF7A1B792302187A43BC400000E5BC30FA
:10171B00E5FB53BCDFAFBDEF75F004A4FFAEF0E506
:10172B00BE5403FDEF4DFF22EFC394025018ED940E
:10173B008040027D80CEEDCEEF25E02435F582E4AE
:10174B003401F583EEF022C0E0C0F0C083C082C04C
:10175B00D075D010120FD7D0D0D082D083D0F0D08C
:10176B00E032120F3E1217F21217E312184CE4FF7D
:10177B001216397F01121639E4FF0202FCEFC394F3
:10178B00025013CEEDCEEF75F006A42416F582E4CD
:10179B003401F583EEF0227592FFE4F591F5904359
:1017AB00B20253B1FDC2B143CA1053C9EFC2CC222E
:1017BB00438E805389F0758A9A758CA9C28DD28C11
:1017CB00308DFDC28CC28D22121880EF60047F0712
:1017DB0080027F051202FC227E007F187D007B00B9
:1017EB007A0079210202D0E4900130F0A3F0A3F04B
:1017FB00A3F0A3F022EFC3940250057D0112140253
:10180B0022EFC394025005E4FD121402221212DCE3
:10181B001211F4120EA0020989D2B77BFF7A1B7941
:10182B003002187AC2B77BFF7A1B793A02187A908A
:10183B000140E0FEA3E0FF22E4F5DE75BC80021759
:10184B00BB43B28053B17FC2B722CEEDCECDCD021A
:10185B001733EF540F4480F5BC2253B2EF43B11052
:10186B002243B21053B1EF2253B2FB43B104229087
:10187B0000BB02029BA2B4E433FF22EF24FF92B41D
:10188B0022A2B2E433FF227F040202FC7F01020298
:10189B00FC7F050202FC7F070202FC7F090202FCAF
:1018AB007F080202FC01010101010101010101019B
:1018BB0002020202020203030303030404040505EC
:1018CB0005060606070707080809090A0A0B0B0C89
:1018DB000D0D0E0E0F1011111213131415161717E1
:1018EB0018191A1B1C1D1E1F2021222324252627F5
:1018FB00292A2B2C2D2F30313234353638393B3CBD
:10190B003E3F4042444547484A4B4D4F5052545638
:10191B0057595B5D5F61626466686A6C6E70727466
:10192B0076797B7D7F7F7D7B79767472706E6C6A46
:10193B0068666462615F5D5B5957565452504F4DF8
:10194B004B4A4847454442403F3E3C3B393836358D
:10195B00343231302F2D2C2B2A29272625242322D4
:10196B0021201F1E1D1C1B1A1918171716151413CF
:10197B0013121111100F0E0E0D0D0C0B0B0A0A0981
:10198B0009080807070706060605050504040403EE
:10199B00030303030202020202020101010101011E
:1019AB00010101010166736D204F46463A206D76A9
:1019BB00206F6B0D0A0066736D204F46463A206D03
:1019CB0076206C6F772025750D0A0066736D206588
:1019DB006E746572202562750D0A0066736D206545
:1019EB00786974202562750D0A0066736D5F6C6FE4
:1019FB006F7020776F726B20544F5543485F45567D
:101A0B00545F50524553535F32530A0066736D5FF8
:101A1B006C6F6F7020776F726B2043484152474554
:101A2B005F494E49542C20656E74657220434841C2
:101A3B005247455F46554C4C2025750A0068616C32
:101A4B002062675F7261772030210A0068616C5FEA
:101A5B00626174746572795F7461736B206E657704
:101A6B005F6D762025750068616C5F6261747465CB
:101A7B0072795F7461736B206E65775F6D7620256D
:101A8B007520636E742025627500746F7563682012
:101A9B0073657276636520544F5543485F455654C2
:101AAB005F50524553535F3530300D0A00746F75DC
:101ABB0063682073657276636520544F5543485FA6
:101ACB004556545F50524553535F32530D0A006CC9
:101ADB0065645F736D5F636F6E73740A006C65642E
:101AEB005F736D5F62726561746865206368202542
:101AFB00627520646976202562750A006C65645FE7
:101B0B00736D5F626C696E6B0A0068616C5F7573F5
:101B1B005F73746172740A0068616C5F75735F73D5
:101B2B00746F700A00706F7765725F6F6E0A00706A
:0A1B3B006F7765725F6F66660A003F
:00000001FF
