:1000000002117090014CE0FFE4F02202153B12183F
:0A001000C053B2BF43B1400218E232
:10001B000217CFBB010689828A83E0225002E722B6
:10002B00BBFE02E32289828A83E49322BB010CE5A7
:10003B008229F582E5833AF583E0225006E9258291
:10004B00F8E622BBFE06E92582F8E222E58229F5D5
:10005B0082E5833AF583E49322BC000BBE0029EFC3
:10006B008DF084FFADF022E4CCF875F008EF2FFF94
:10007B00EE33FEEC33FCEE9DEC984005FCEE9DFE62
:10008B000FD5F0E9E4CEFD22EDF8F5F0EE8420D2A9
:10009B001CFEADF075F008EF2FFFED33FD40079818
:1000AB005006D5F0F222C398FD0FD5F0EA22C5F029
:1000BB00F8A3E028F0C5F0F8E582158270021583ED
:1000CB00E038F022E88FF0A4CC8BF0A42CFCE98E66
:1000DB00F0A42CFC8AF0EDA42CFCEA8EF0A4CDA8A5
:1000EB00F08BF0A42DCC3825F0FDE98FF0A42CCDAE
:1000FB0035F0FCEB8EF0A4FEA9F0EB8FF0A4CFC58E
:10010B00F02ECD39FEE43CFCEAA42DCE35F0FDE417
:10011B003CFC2275F008758200EF2FFFEE33FECD0D
:10012B0033CDCC33CCC58233C5829BED9AEC99E5AC
:10013B008298400CF582EE9BFEED9AFDEC99FC0F3C
:10014B00D5F0D6E4CEFBE4CDFAE4CCF9A88222B804
:10015B0000C1B90059BA002DEC8BF084CFCECDFC89
:10016B00E5F0CBF97818EF2FFFEE33FEED33FDEC16
:10017B0033FCEB33FB10D703994004EB99FB0FD8FF
:10018B00E5E4F9FA227818EF2FFFEE33FEED33FD9D
:10019B00EC33FCC933C910D7059BE99A4007EC9B9C
:1001AB00FCE99AF90FD8E0E4C9FAE4CCFB2275F02C
:1001BB0010EF2FFFEE33FEED33FDCC33CCC833C83D
:1001CB0010D7079BEC9AE899400AED9BFDEC9AFC43
:1001DB00E899F80FD5F0DAE4CDFBE4CCFAE4C8F9F2
:1001EB0022EB9FF5F0EA9E42F0E99D42F0EC648031
:1001FB00C864809845F022EB9FF5F0EA9E42F0E947
:10020B009D42F0E89C45F022E6FC08E6FD08E6FE80
:10021B0008E6FF22E0FCA3E0FDA3E0FEA3E0FF2243
:10022B00E0F8A3E0F9A3E0FAA3E0FB22ECF608ED7B
:10023B00F608EEF608EFF622ECF0A3EDF0A3EEF0E5
:10024B00A3EFF022A8828583F0D083D082120266BE
:10025B00120266120266120266E473E493A3C5836C
:10026B00C5F0C583C8C582C8F0A3C583C5F0C583D7
:10027B00C8C582C822E6FB08E6FA08E6F922EBF6C7
:10028B0008EAF608E9F622E0FBA3E0FAA3E0F9227C
:10029B00EBF0A3EAF0A3E9F022D083D082F8E49349
:1002AB007012740193700DA3A393F8740193F582EC
:1002BB008883E4737402936860EFA3A3A380DF8A3F
:1002CB00838982E473EF4E6012EF60010EEDBB0188
:1002DB000B89828A83F0A3DFFCDEFA2289F05007B8
:1002EB00F709DFFCA9F022BBFEFCF309DFFCA9F048
:1002FB002290007FEFF07BFF7A1A79589000BEF0C6
:10030B001218F7900152E0FF12049D90007FE0FF5E
:10031B00900152F0EF1202A4034E00035A02036243
:10032B000303870403A20503BC0603E20703FE08CD
:10033B0004190904360A04540B04600C04800D00E4
:10034B0000049C1218A17BFF7A1979190204077B10
:10035B00FF7A167923806D1216E17D0C7F01120C4A
:10036B00FF7BFF7A197914E4900087F07F207EBF22
:10037B007D02FC120E649001530204977BFF7A19E5
:10038B00790FE4900087F07F207EBF7D02FC120E78
:10039B00649001550204977BFF7A19791EE4900053
:1003AB0087F07FE87E03FDFC120E6490015502047A
:1003BB0097E4FF1216B67F011216B61218AC7BFF2C
:1003CB007A197919E4900087F07F0AFEFDFC120E72
:1003DB00649001550204971218AC7BFF7A18795080
:1003EB00E4900087F07F64FEFDFC120E64900155D3
:1003FB000204971218E97BFF7A197928E490008799
:10040B00F07F01FEFDFC120E64900155807E7F0192
:10041B001219037BFF7A197928E4900087F07F96F5
:10042B00FEFDFC120E649001558061E4FF1219036E
:10043B007BFF7A19792DE4900087F07F3A7E07FDD8
:10044B00FC120E6490015580437F011219037D64E9
:10045B00E4FF0213C97D03E4FF120CFF7BFF7A1943
:10046B00791EE4900087F07FB87E0BFDFC120E64C2
:10047B0090015580177BFF7A19791EE4900087F065
:10048B007FB87E0BFDFC120E64900155EEF0A3EFCE
:10049B00F022900080EFF07BFF7A1A79689000BE13
:1004AB00F01218F7900080E01202A404DE0004EEB4
:1004BB000204FE03052404054205056006057E07BC
:1004CB00059B0805B50905CF0A05E90B05EE0C00E0
:1004DB0000060EC3900155E0648094805003020621
:1004EB000E8044C3900155E0648094805003020653
:1004FB000E80341217707F011216B6C3900153E0B1
:10050B0064809480500302060EE0FEA3E0FF1217F6
:10051B002C74FF90015302060BC3900155E06480CD
:10052B009480500302060EE0FEA3E0FF12172C741A
:10053B00FF90015502060BC3900155E06480948037
:10054B00500302060EE0FEA3E0FF12172C74FF907F
:10055B00015502060BC3900155E064809480500353
:10056B0002060EE0FEA3E0FF12172C74FF9001555C
:10057B0002060BC3900155E0648094805003020681
:10058B000EE0FEA3E0FF12172C74FF900155807054
:10059B00C3900155E0648094804068E0FEA3E0FFC7
:1005AB0012172C74FF9001558056C3900155E064CF
:1005BB00809480404EE0FEA3E0FF12172C74FF9056
:1005CB000155803CC3900155E0648094804034E039
:1005DB00FEA3E0FF12172C74FF9001558022E4FF5D
:1005EB000216B6E4FF1216B6C3900155E064809470
:1005FB00804010E0FEA3E0FF12172C74FF90015512
:10060B00F0A3F02290015CEDF012001E24FD607B44
:10061B0024FE70030207032404600302076F90009B
:10062B00011200371202A4064E00065701066002A3
:10063B00066903067204067B05068406068D070011
:10064B0000076F90015CE024FF92902290015CE028
:10065B0024FF92912290015CE024FF929222900160
:10066B005CE024FF92932290015CE024FF929422A1
:10067B0090015CE024FF92952290015CE024FF92B4
:10068B00962290015CE024FF9297229000011200C9
:10069B00371202A406BB0006C40106CD0206D60320
:1006AB0006DF0406E80506F10606FA070000076FE9
:1006BB0090015CE024FF92B02290015CE024FF9259
:1006CB00B12290015CE024FF92B22290015CE02405
:1006DB00FF92B32290015CE024FF92B42290015C64
:1006EB00E024FF92B52290015CE024FF92B62290A9
:1006FB00015CE024FF92B722900001120037120236
:10070B00A4072800073101073A02074303074C04EB
:10071B00075505075E060767070000076F90015C2A
:10072B00E024FF92C82290015CE024FF92C9229042
:10073B00015CE024FF92CA2290015CE024FF92CB83
:10074B002290015CE024FF92CC2290015CE024FF1C
:10075B0092CD2290015CE024FF92CE2290015CE0CE
:10076B0024FF92CF2290013BEDF0C9EFC9E9C3946E
:10077B000240030208C2EB4A70030208C290013E1A
:10078B00E0FCA3E0FD4C70030208C290013BE09437
:10079B006440037464F0CEEACECFEBCFEEC313FE0E
:1007AB00EF13FF900140EEF0A3EFF0ECC313FEED5F
:1007BB0013FFE975F00AA4241AF582E43401F583DA
:1007CB00E064037058E975F00AA4241BF582E43445
:1007DB0001F583E0FD90013BE0FCED6C703FE975AA
:1007EB00F00AA4241DF582E43401F583E0FCA3E0B8
:1007FB00FD900140E0FAA3E0FBED6B7002EC6A7038
:10080B001CE975F00AA4241FF582E43401F583E09A
:10081B00FCA3E06F7002EC6E70030208C2E975F086
:10082B000AA4241AF582E43401F5837403F09001D1
:10083B003BE0FDE975F00AA4241BF582E43401F5D5
:10084B0083EDF0900140E0FCA3E0FDE975F00AA414
:10085B00241DF582E43401F583ECF0A3EDF0E9758A
:10086B00F00AA4241FF582E43401F583EEF0A3EF24
:10087B00F0E975F00AA4241DF582E43401F583E058
:10088B00FEA3E0FFE975F00AA42421F582E434010C
:10089B00F583EEF0A3EFF0E975F00AA42423F582BB
:1008AB00E43401F5837401F0CFE9CF1212E57BFF3D
:1008BB007A1B79891218F722E49000BCF09000BCE7
:1008CB00E075F006A4242EF582E43401F583E014E0
:1008DB00601214603F240260030209B89000BCE070
:1008EB00FFE4802C9000BCE075F006A4242FF58269
:1008FB00E43401F583E075F080A4FFAEF07C007D5D
:10090B00641200649000BDEFF09000BCE0FFA3E028
:10091B00FD0209B59000BCE075F006A42430F58209
:10092B00E43401F583E0FF9000BCE075F006A424ED
:10093B0031F582E43401F583E004F0C39F40459028
:10094B0000BCE075F006A42431F582E43401F58394
:10095B00E4F09000BCE075F006A42432F582E43498
:10096B0001F583E475F0011200B9C39401401590B1
:10097B0000BCE075F006A42432F582E43401F58363
:10098B00E4F0A3F09000BCE075F006A42432F582ED
:10099B00E43401F583E0FEA3E02432F58274193EC2
:1009AB00F583E493FD9000BCE0FF1218D29000BCDD
:1009BB00E004F0E0C3940250030208C822120DB306
:1009CB0012000390007CEFF0900152E01202A40998
:1009DB00F9010A11020A1F030A5F040A8C070A961F
:1009EB00090A980A0A9B0B0AAB0C00000AB61218EC
:1009FB00FDEF6002801990007CE064026003020A44
:100A0B00B67F02020AB31218FDEF7003020AB67F1B
:100A1B0007020AB31218FDEF60057F06020AB390B6
:100A2B00007CE0B40302803D1218B790007DEEF01D
:100A3B00A3EFF0C39454EE940B50047D038011D3B9
:100A4B0090007EE094F090007DE0940A405D7D0C78
:100A5B007F01802A1218FDEF60047F06804A900008
:100A6B007CE0B4030E7F051202FC7BFF7A1A7977C8
:100A7B000218F77D017F01120CFF7D01E4FF020CD0
:100A8B00FF1218FDEF70247F06801D80000214FEFC
:100A9B001218B7C3EF94A0EE940F500F7F08800885
:100AAB001218FDEF60057F071202FC22E49000BBD9
:100ABB00F09000BBE075F00AA4241AF582E434012F
:100ACB00F583E064036003020B759000BBE075F0E7
:100ADB000AA42421F582E43401F58374FFF5F012A6
:100AEB0000B945F06003020B759000BBE075F00A8E
:100AFB00A42423F582E43401F583E07F0070027FA8
:100B0B00019000BBE075F00AA42423F582E43401C4
:100B1B00F583EFF09000BBE075F00AA42423F58277
:100B2B00E43401F583E09000BB600EE075F00AA49D
:100B3B00241DF582E43401800CE075F00AA4241F17
:100B4B00F582E43401F583E0FEA3E0FF9000BBE007
:100B5B0075F00AA42421F582E43401F583EEF0A3A9
:100B6B00EFF09000BBE0FF1212E59000BBE004F049
:100B7B00E0C394025003020ABC0208C3E490008055
:100B8B00F0A3F0900082F0A3F090008412024F00CB
:100B9B0000000090008812024F0000000090008CB3
:100BAB0012024F000000007F0F121577900080EEAD
:100BBB00F0A3EFF0900080E07002A3E0700D7BFFDC
:100BCB007A1A79CA1218F7E4FEFF227F0E121577F4
:100BDB00900082EEF0A3EFF0900080E0FEA3E0FF28
:100BEB00CBEFCBCAEECAE4F9F87F5A7E937D12FCA9
:100BFB0012015A900084120243900082E0FEA3E09F
:100C0B00FFE4FCFD90008412022B1200CFE47BFF6B
:100C1B007A03F9F812015A900088120243E47F021A
:100C2B00FEFDFC90008812022B1200CF90008C125C
:100C3B00024390008C12021F22120B8790007CEE55
:100C4B00F0A3EFF0C3900159E09F900158E09E5044
:100C5B0013E0FEA3E0FFC390007DE09FFF90007CBC
:100C6B00E09E801490007CE0FEA3E0FFC39001594E
:100C7B00E09FFF900158E09E90007EF0A3EFF0D331
:100C8B0090007FE0943290007EE09400502590001D
:100C9B007CE0FEA3E0FF900158EEF0A3EFF0E490B0
:100CAB000157F07BFF7A1A79D99000BEEEF0A3EFD3
:100CBB00F0803D900157E004F0E0C39403401490A2
:100CCB00007CE0FFA3E0900158CFF0A3EFF0E4909D
:100CDB000157F07BFF7A1A79F490007CE0FFA3E0D8
:100CEB009000BECFF0A3EFF0900157E09000C0F062
:100CFB001218F722900081EDF0900080EFF0C39472
:100D0B00024003020DB2A3E0FF7003020DB290008C
:100D1B0080E0FE75F00AA4241AF582E43401F58311
:100D2B00E0B40212EE75F00AA4241CF582E434013F
:100D3B00F583E06F6071900080E0FF75F00AA424EA
:100D4B001AF582E43401F5837402F0900081E0FE21
:100D5B00EF75F00AA4241CF582E43401F583EEF060
:100D6B00900080E0FF75F00AA4241BF582E43401A7
:100D7B00F583E07011EF75F00AA4241BF582E434BF
:100D8B0001F5837464F0900080E0FF1212E57BFFA5
:100D9B007A1B796A900080E09000BEF0900081E0B1
:100DAB009000BFF01218F722E490007FF0A3F090B0
:100DBB00007FE0FEA3E0FFC39402EE6480948040CA
:100DCB0003020E63EF75F00CA42429F8120280EADB
:100DDB00494B607790007FA3E075F00CA42421F8B9
:100DEB00120213E4FBFAF9F8C3120202705D9000D1
:100DFB007FA3E0FF75F00CA42429F8120280A31244
:100E0B00029BEF75F00CA4242CF8E6602090007F79
:100E1B00A3E0FFCBEFCB75F00CA42425F812021343
:100E2B00EB75F00CA42421F812023780157B007AA5
:100E3B0000790090007FA3E075F00CA42429F81230
:100E4B0002899000811202921202CA90007FE4750F
:100E5B00F0011200B9020DBA2290008012024390E9
:100E6B00008412029BE4900088F0A3F0900088E0CD
:100E7B00FEA3E0FFC39402EE64809480507AEF757A
:100E8B00F00CA42429F8120280CEEACECFE9CFEFE2
:100E9B004E705890008012021F900088A3E0FB75E3
:100EAB00F00CA42421F812023790008012021FEBE1
:100EBB0075F00CA42425F8120237900084120292CC
:100ECB00900088E0FEA3E0FFCDEFCD75F00CA424DD
:100EDB0029F8120289900087E07C0060027C01ED0A
:100EEB0075F00CA4242CF8C6ECC622900088E4758F
:100EFB00F0011200B9020E777EFF7FFF2212190953
:100F0B00EF6022900149E0C394325003E004F0906B
:100F1B000149E06432702A900148E0702404F0909B
:100F2B00014CF0801C900149E0600214F0900149E3
:100F3B00E0700E900148E06008E4F090014AF0A3E5
:100F4B00F0900148E0605390014AE0FEA3E0FFE41B
:100F5B00FCFD7B607AEAF9F8D31201EC400A9001B0
:100F6B004AE475F0011200B990014AE0B40112A3F2
:100F7B00E0B4F40DA37402F07BFF7A1B79171218FF
:100F8B00F790014AE0B40712A3E0B4D00DA37403A9
:100F9B00F07BFF7A1B793A1218F722410148004186
:100FAB0001490042014A000041014C00410151003E
:100FBB0041015700420158000012390101010201A1
:100FCB0003010401050106010703010504024B019E
:100FDB000042014300004101420041014500420132
:100FEB0046000041015A0041015B004200E7008AC4
:100FFB004100E9014200EA0000C100602A00F00054
:10100B004F004E004D004D004C004C004B004B0070
:10101B004A004A0049004900480048004700470081
:10102B004600460045004500444101520042015331
:10103B00FFFF420155FFFF001211FCE490007CF012
:10104B0090007CE0FFC3940240030210DBEF75F0CD
:10105B000AA4241AF582E43401F583E4F0EF75F069
:10106B000AA4241BF582E43401F583E4F0EF75F058
:10107B000AA4241CF582E43401F5837401F0EF75A6
:10108B00F00AA4241DF582E43401F583E4F0A3F007
:10109B00EF75F00AA4241FF582E43401F583E4F024
:1010AB00A3F0EF75F00AA42421F582E43401F58353
:1010BB00E4F0A3F0EF75F00AA42423F582E43401E5
:1010CB00F583E4F01212E590007CE004F002104B83
:1010DB0022900151E070309000E6F09000E6E025A0
:1010EB00E0244DF582E43401F583E0FF9000E6E067
:1010FB0025E0244EF582E43401F583EFF09000E611
:10110B00E004F0E0B402D4E49000E6F09000E6E0F6
:10111B0025E0244EF582E43401F583E0700790005E
:10112B00E6E0FF80239000E6E025E0244EF582E424
:10113B003401F583E0FF900151E0D39F9000E6E08E
:10114B00FF500512187D80031218899000E6E00409
:10115B00F0E0C3940240B5900151E004F0C39480D9
:10116B004002E4F022787FE4F6D8FD75814C021141
:10117B00B7021750E493A3F8E493A34003F680015E
:10118B00F208DFF48029E493A3F85407240CC8C3B6
:10119B0033C4540F4420C8834004F456800146F6F0
:1011AB00DFE4800B0102040810204080900FA6E4BE
:1011BB007E019360BCA3FF543F30E509541FFEE44E
:1011CB0093A360010ECF54C025E060A840B8E49310
:1011DB00A3FAE493A3F8E493A3C8C582C8CAC58352
:1011EB00CAF0A3C8C582C8CAC583CADFE9DEE780D7
:1011FB00BE12181F1215ECE490007DF090007DE0FC
:10120B00FFC39402505FEF75F006A4242EF582E421
:10121B003401F583E4F0EF75F006A4242FF582E496
:10122B003401F583E4F0EF75F006A42430F582E485
:10123B003401F5837401F0EF75F006A42432F582C6
:10124B00E43401F583E4F0A3F0EF75F006A4243148
:10125B00F582E43401F583E4F0FD1218D290007DA1
:10126B00E004F0809722E49000BBF0A3F09000BB69
:10127B00E0FEA3E0FFC39402EE64809480505AEF2B
:10128B0075F00CA42429F8120280EA494B603E90B9
:10129B0000BBA3E0CBEFCB75F00CA42421F812021A
:1012AB0013EC4D4E4F6026EB75F00CA42421F81275
:1012BB000213EF24FFFFEE34FFFEED34FFFDEC34A1
:1012CB00FFFCEB75F00CA42421F81202379000BB45
:1012DB00E475F0011200B98094229000BCEFF07518
:1012EB00F00AA4241AF582E43401F583E014600FAC
:1012FB00146011146025240370539000BC80479038
:10130B0000BC802E9000BCE0FF75F00AA4241CF5F5
:10131B0082E43401F583E0FD0216889000BCE07591
:10132B00F00AA42423F582E43401F583E09000BC99
:10133B006014E0FF75F00AA4241BF582E43401F578
:10134B0083E0FD021656E0FFE4FD12180522300083
:10135B006C9000EAE475F0011200B9FEC3E5F0945D
:10136B0019EE94004057E49000EAF0A3F09000E9E6
:10137B00E0601A9000E8E0949E9000E7E094005043
:10138B00028028E49000E9F09000E7800FD39000F2
:10139B00E8E0948A9000E7E09400400674FFF5F0D3
:1013AB00800D9000E97401F09000E7E475F00112F4
:1013BB0000B99000E7E0FEA3E0FF12142B22EFC36D
:1013CB009402505BED946440027D64EF75F00AA4C7
:1013DB00241AF582E43401F583E0B40112EF75F0C1
:1013EB000AA4241BF582E43401F583E06D6030EF31
:1013FB0075F00AA4241AF582E43401F5837401F024
:10140B00CEEDCEEF75F00AA4241BF582E43401F582
:10141B0083EEF01212E57BFF7A1B795C1218F72230
:10142B00EF24769000BBF0E025E024F0F582E43465
:10143B0000F583E0FFA3E09000BCCFF0A3EFF090AA
:10144B0000BCE0C313FFA3E013A3CFF0A3EFF09016
:10145B0000BEE090FEDBF09000BEE0A3E090FEDC6F
:10146B00F09000BCE090FED2F09000BCE0A3E090C6
:10147B00FED3F022EFC39402503BEF14602C0470A8
:10148B0034ED6013D292D293D294D295D296D29756
:10149B00D2CCD291D2B122C292C293C294C295C283
:1014AB0096C297C2CCC291C2B122CFEDCFEF6003EF
:1014BB00D29022C2902243B20853B1F743BA809024
:1014CB00FEB2E0543F44C0F090FEB1E04480F09097
:1014DB00FED0E4F0A3F090FECB7468F090FECD74D8
:1014EB0040F090FEDD7480F090FEC0F07F8A7E00AD
:1014FB0002142B1218B7C3EF9404EE941040197F0B
:10150B000B1202FC1218B79000BEEEF0A3EFF07BAB
:10151B00FF7A1A79990218F71218B7C3EF94ACEE49
:10152B00940D50047D0380027D0CE4FF120CFF220E
:10153B00C0E0C0F0C083C082C0D075D0081218952F
:10154B00900143E475F0011200B9FEC3E5F0946419
:10155B00EE9400400C900143E4F0A3F090014204A0
:10156B00F0D0D0D082D083D0F0D0E032E490009095
:10157B00F0A3F0A3F01218DAE4900090F012179099
:10158B00900091EE8FF01200B9900090E004F0E023
:10159B00C3940840E87803900091E0FEA3E0CEC32B
:1015AB0013CE13D8F9FF22C3900159E094E49001B4
:1015BB0058E0940C50037F0022D3900159E09468BB
:1015CB00900158E0941040037F6422900159E0246D
:1015DB001CFF900158E034F3FE7C007D091200647F
:1015EB0022E490007EF090007EE0FFC3940250272F
:1015FB00EF25E0244DF582E43401F583E4F0EF258B
:10160B00E0244EF582E43401F583E4F0121889905E
:10161B00007EE004F080CF221218B7D3EF94F0EEE7
:10162B00940A400D7BFF7A1A79321218F77F0380E8
:10163B00161218B79000BEEEF0A3EFF07BFF7A1AEC
:10164B0079431218F77F0C1202FC22EFC39402505D
:10165B002BED946440027D64CEEDCEEF75F006A4C5
:10166B00242FF582E43401F583EEF0EF75F006A438
:10167B00242EF582E43401F5837401F022EFC39438
:10168B00025027ED6024CEEDCEEF75F006A424308A
:10169B00F582E43401F583EEF0EF75F006A4242E09
:1016AB00F582E43401F5837402F022EFC394025007
:1016BB0024EF75F00AA4241AF582E43401F583E0D3
:1016CB006013EF75F00AA4241AF582E43401F58354
:1016DB00E4F01212E5229000E7E4F0A3748AF09094
:1016EB0000E97401F0E4A3F0A3F0D20090FEC0E097
:1016FB004401F07BFF7A1B79970218F7438E8053D6
:10170B0089F0758ACD758CD4C28DD28CD2A9438EBB
:10171B004053890F758BAE758DFBC28FD28ED2ABBA
:10172B0022C3EE64809480401BEF9402EE6480949D
:10173B008050117B007A007900EF75F00CA42429FE
:10174B00F812028922C2AF12000E1217071217EA03
:10175B001214C1D2AF1209C8900142E060F7E4F055
:10176B00120C4480F090FEDBE4F0A3F090FEC70473
:10177B00F090FEC0E054FEF0C2B3C2007BFF7A1BB8
:10178B0079A50218F743BC400000E5BC30E5FB53DC
:10179B00BCDFAFBDEF75F004A4FFAEF0E5BE5403A4
:1017AB00FDEF4DFF22EFC394025018ED94804002E1
:1017BB007D80CEEDCEEF25E0244DF582E43401F5AE
:1017CB0083EEF022C0E0C0F0C083C082C0D075D0E1
:1017DB00101210DCD0D0D082D083D0F0D0E03212F7
:1017EB00104312186F1218601218C9E4FF1216B6C4
:1017FB007F011216B6E4FF0202FCEFC394025013F2
:10180B00CEEDCEEF75F006A4242EF582E43401F56F
:10181B0083EEF0227592FFE4F591F59043B20253FB
:10182B00B1FDC2B143CA1053C9EFC2CC22438E8063
:10183B005389F0758A9A758CA9C28DD28C308DFD27
:10184B00C28CC28D221218FDEF60047F0880027FCC
:10185B00061202FC227E007F187D007B007A007945
:10186B00210202D0E4900148F0A3F0A3F0A3F0A36F
:10187B00F022EFC3940250057D0112147F22EFC3B7
:10188B0094025005E4FD12147F22121359121271A7
:10189B00120F08020AB7D2B77BFF7A1B79B2021874
:1018AB00F7C2B77BFF7A1B79BC0218F7900158E09F
:1018BB00FEA3E0FF22E4F5DE75BC8002183843B2CC
:1018CB008053B17FC2B722CEEDCECDCD0217B0EF94
:1018DB00540F4480F5BC2253B2EF43B1102243B2F4
:1018EB001053B1EF2253B2FB43B104229000BB0261
:1018FB00029BA2B4E433FF22EF24FF92B422A2B2E4
:10190B00E433FF227F030202FC7F040202FC7F010F
:10191B000202FC7F060202FC7F080202FC7F0A0225
:10192B0002FC7F090202FC0101010101010101011D
:10193B000101020202020202030303030304040473
:10194B00050505060606070707080809090A0A0B15
:10195B000B0C0D0D0E0E0F10111112131314151677
:10196B00171718191A1B1C1D1E1F20212223242593
:10197B002627292A2B2C2D2F303132343536383966
:10198B003B3C3E3F4042444547484A4B4D4F5052EB
:10199B00545657595B5D5F61626466686A6C6E7022
:1019AB00727476797B7D7F7F7D7B79767472706EB6
:1019BB006C6A68666462615F5D5B5957565452503E
:1019CB004F4D4B4A4847454442403F3E3C3B3938DC
:1019DB003635343231302F2D2C2B2A29272625242E
:1019EB00232221201F1E1D1C1B1A19181717161531
:1019FB00141313121111100F0E0E0D0D0C0B0B0AED
:101A0B000A09090808070707060606050505040461
:101A1B000403030303030202020202020101010198
:101A2B000101010101010166736D204F46463A2009
:101A3B006D76206F6B0D0A0066736D204F46463A2C
:101A4B00206D76206C6F772025750D0A0066736DFF
:101A5B0020656E746572202562750D0A0066736DC4
:101A6B002065786974202562750D0A0066736D5FB9
:101A7B006C6F6F7020776F726B20544F5543485FBC
:101A8B004556545F50524553535F32530A006673A9
:101A9B006D5F6C6F6F7020776F726B204348415294
:101AAB0047455F494E49542C20656E74657220433F
:101ABB0048415247455F46554C4C2025750A0068F6
:101ACB00616C2062675F7261772030210A00686168
:101ADB006C5F626174746572795F7461736B206E95
:101AEB0065775F6D762025750068616C5F62617448
:101AFB00746572795F7461736B206E65775F6D7659
:101B0B0020257520636E742025627500746F7563D4
:101B1B00682073657276636520544F5543485F4563
:101B2B0056545F50524553535F3530300D0A007495
:101B3B006F7563682073657276636520544F5543E8
:101B4B00485F4556545F50524553535F32530D0A0D
:101B5B00006C65645F736D5F636F6E73740A006C0A
:101B6B0065645F736D5F627265617468652063683D
:101B7B002025627520646976202562750A006C65E4
:101B8B00645F736D5F626C696E6B0A0068616C5F9A
:101B9B0075735F73746172740A0068616C5F75733F
:101BAB005F73746F700A00706F7765725F6F6E0A88
:0C1BBB0000706F7765725F6F66660A004D
:00000001FF
